:020000040000FA
:100000000C9424050C944C050C944C050C944C0554
:100010000C944C050C944C050C944C050C946C0FF2
:100020000C944C050C944C050C944C050C94A40EAB
:100030000C944C050C944C050C944C050C944C05FC
:100040000C945A0E0C944C050C94280E0C94020E31
:100050000C944C050C9409110C944C050C944C0513
:100060000C944C050C944C0508000000BE922449E9
:10007000123EABAAAA2ABECDCCCC4C3E00000080DA
:10008000BEABAAAAAA3E00000000BF000000803F4D
:100090000000000000084178D3BB4387D1133D190D
:1000A0000E3CC3BD4282AD2B3E68EC8276BED98F3A
:1000B000E1A93E4C80EFFFBE01C4FF7F3F0000007E
:1000C000000001010101010102020202000003031C
:1000D000030303030202000000000101010101010A
:1000E000000000000000010101010101000000000A
:1000F00000000101010101010000000000000101F8
:100100000101010100000000000053757A756B6960
:100110002044525A343030202020000000000100DA
:1001200000000100000001000000010000000100CB
:1001300000000100000001000000010002020302B3
:1001400000000100000001000000010000000100AB
:10015000000001000000010000000159616D6168AC
:10016000612052312030322D303320000001000157
:100170000001000100010003000100010001000175
:100180000001000100010001000100030001000363
:10019000000100010001000100010001486F6E64D0
:1001A00061205243353120772F63616D00010101D9
:1001B000010000000000000101010100000000003A
:1001C000000101010100000000000000000000002B
:1001D000000000000000000000000101010100001B
:1001E0000000000001010101000000000000010109
:1001F00001010000000000000000000000427565E1
:100200006C6C204F646466697265202020000100D8
:1002100001000100010001000100010001000100D6
:1002200003020300010001000100010001000100C0
:1002300001000100010001000100010001000100B6
:1002400001000100010001000100010001000100A6
:100250000100010000000100010001000100010097
:10026000010003020300010003020300010001007A
:100270000100010001000100010001000100010076
:100280000100010001000100010001000100010066
:1002900001000100010001000100010000004D61AA
:1002A0007A6461204645332033362D312020000109
:1002B0000000020000010000000000010001000138
:1002C0000001000100010001000100010001000126
:1002D0000001000100010001000100000200000116
:1002E0000001000100010001000100010001000106
:1002F00000010001000100010000000000010000F9
:1003000000000001000102010001000100010001E4
:1003100000010001000100010001000100010001D5
:1003200000010000000000010001000100010001C7
:100330000001000100010001000100010001003383
:10034000362D322D322D322043264320202020000E
:100350000100010001000100010001000100010095
:100360000100010001000100010001000100010085
:100370000100010001000000000001000100010077
:100380000100010001000100010001000100000066
:10039000000001000000000033362D322D322D32D6
:1003A000204836206F2F432000010001000100018A
:1003B0000001000100010001000100010001000135
:1003C0000001000000000001000000000001000129
:1003D0000001000100010001000100010001000115
:1003E0000001000100010000000000010001000107
:1003F0000033362D322D322D32204834206F2F43DA
:1004000020000100000001000000010000000100C8
:1004100000000100000001000000010000000100D8
:1004200000000100000000000000000000000000CB
:10043000000031322D33206F646462616C6C2020C7
:100440002020000001000100010001000100010066
:100450000100010001000100010001000100010094
:100460000100010001000100010001000100010084
:100470000100010001000100010001000100010074
:100480000100010001000100010001000100010064
:1004900001000034302D312028466F72642056311F
:1004A00030292000000000000001000000000001D1
:1004B000000000000001000000000001000000003A
:1004C0000001000000000001000000000001000029
:1004D0000000000100000000000100000000000119
:1004E000000000000001000000000000000000000B
:1004F00000010000000000010000000000010000F9
:1005000000000001000000000001000000000001E8
:1005100000000000000100000000000100000000D9
:1005200000010202020202010000000000010000BE
:100530000000000031322D31206372616E6B202685
:100540002063616D00000001000001000001000057
:100550000100000100000000000100000102020192
:10056000000001000001000000362D31206372619F
:100570006E6B20262063616D2000000100010001E8
:1005800000010001000100010000382D31206372DC
:10059000616E6B20285236292020000100010001E5
:1005A0000001000100010001000100010001000143
:1005B0000001000100010001000100010001000133
:1005C000000100010001000100000032342D312043
:1005D0006372616E6B206F6E6C7920000100010008
:1005E0000100010001000100010001000100010003
:1005F00001000100010001000100010001000100F3
:1006000001000100010001000100010001000100E2
:1006100001000100010001000100010001000100D2
:100620000100000033362D31206372616E6B206F44
:100630006E6C792000010001000100010001000141
:1006400000010001000100010001000100010001A2
:100650000001000100010001000100010001000192
:100660000001000100010001000100010001000182
:100670000001000100010001000100010001000172
:100680000001000100010001000100030203020358
:100690000203020302030203020302030203020332
:1006A0000203020302030203020202020203020324
:1006B0000203020302030203020302030203020312
:1006C0000203020302030203020302030203020302
:1006D00002030203020302030203020302030203F2
:1006E00002030203020302030203020302030203E2
:1006F00002030203020302030203020302030203D2
:1007000002030201000100010001000100010001DB
:1007100000010001000100010001000100010001D1
:10072000000000000036302D3220262068616C6603
:10073000206D6F6F6E0001000100010001000100DB
:1007400001000100010001000100010001000100A1
:100750000100010001000100010001000100010091
:100760000100010001000100010001000100010081
:100770000100010001000100010001000100010071
:100780000100010001000100010001000100010061
:100790000100010001000100010001000100010051
:1007A0000100010001000100010000000000010043
:1007B0000100010001000100010001000100010031
:1007C0000100010001000100010001000100010021
:1007D0000100010001000100010001000100010011
:1007E0000100010001000100010001000100010001
:1007F00001000100010201000100010001000100EF
:1008000001000100010001000100010001000100E0
:1008100001000100010001000100010001000100D0
:1008200001000000000036302D32206372616E6BD3
:1008300020262063616D00020303030103030320EC
:1008400020424D5720626F78657220282D292000A4
:1008500001000000020000002020424D5720626F7E
:1008600078657220282B2920000101010101010077
:100870000000000001010000000000000000000076
:100880000101000000000000000000000101000064
:100890000000000000000000010100000000000056
:1008A0000000000001010000000000000000000046
:1008B000202053757A756B692042616E64697420DB
:1008C0000001000000000000000000000000000027
:1008D0000100000000000000000000000000000116
:1008E0000000000000000000000000000000010106
:1008F000010101010101010000000000004B6177CE
:100900006173616B69205A58522D323530000101F4
:1009100000000001010101010101010101010000CC
:1009200000000000000000000000000000000000C7
:1009300000000000000000010101010101010101AE
:1009400001010000000000000000000000000000A5
:100950000000000000004B61776173616B69205AF1
:10096000582D362020200001000000020000000069
:1009700053696D706C6520343064656720313830A0
:100980000001010000000002020000000059616D3A
:100990006168612036302032636820202000010029
:1009A00002000000000000000000486F6E6461203B
:1009B000323520326368203630200001000002000A
:1009C00000000000000000486F6E64612032352096
:1009D000326368203930200001000000000002006E
:1009E00000000000486F6E64612032352032636879
:1009F000203138300000000000240027002A0000C9
:100A0000000000250028002B000404040404040452
:100A100004020202020202030303030303010204AD
:100A20000810204080010204081020010204081070
:100A3000200000000800020100000304070000007D
:100A4000000000000000441111241FBECFEFD8E0C9
:100A5000DEBFCDBF12E0A0E0B1E0ECEAF6E302C0F9
:100A600005900D92AC3CB107D9F723E0ACECB2E0B5
:100A700001C01D92AE3AB207E1F715E0C4E2D5E03D
:100A800004C02197FE010E947618C332D107C9F72E
:100A90000E948E110C94541B0C940000AF92BF92D4
:100AA000CF92DF92EF92FF920F931F93CF93DF933A
:100AB0006C017B018B01040F151FEB015E01AE1869
:100AC000BF08C017D10759F06991D601ED91FC918B
:100AD0000190F081E02DC6010995892B79F7C501B8
:100AE000DF91CF911F910F91FF90EF90DF90CF900A
:100AF000BF90AF900895FC01538D448D252F30E0B9
:100B0000842F90E0821B930B541710F0CF9608951A
:100B100001970895FC01918D828D981761F0A28D47
:100B2000AE0FBF2FB11D5D968C91928D9F5F9F730D
:100B3000928F90E008958FEF9FEF0895FC01918DC3
:100B4000828D981731F0828DE80FF11D858D90E030
:100B500008958FEF9FEF0895FC01918D228D892FCD
:100B600090E0805C9F4F821B91098F7399270895B5
:100B700085EF92E00E94AC0521E0892B09F420E08A
:100B8000822F0895FC01A48DA80FB92FB11DA35A7F
:100B9000BF4F2C91848D90E001968F739927848F9D
:100BA000A689B7892C93A089B1898C9183708064C0
:100BB0008C93938D848D981306C00288F389E02D61
:100BC00080818F7D80830895EF92FF920F931F9312
:100BD000CF93DF93EC0181E0888F9B8D8C8D9813F0
:100BE0001AC0E889F989808185FF15C09FB7F894FC
:100BF000EE89FF896083E889F98980818370806448
:100C000080839FBF81E090E0DF91CF911F910F9192
:100C1000FF90EF900895F62E0B8D10E00F5F1F4FA1
:100C20000F731127E02E8C8D8E110CC00FB607FCB0
:100C3000FACFE889F989808185FFF5CFCE010E943E
:100C4000C205F1CFEB8DEC0FFD2FF11DE35AFF4FE5
:100C5000F0829FB7F8940B8FEA89FB8980818062CC
:100C6000CFCFCF93DF93EC01888D8823B9F0AA8989
:100C7000BB89E889F9898C9185FD03C0808186FD57
:100C80000DC00FB607FCF7CF8C9185FFF2CF8081A6
:100C900085FFEDCFCE010E94C205E9CFDF91CF9154
:100CA000089590E0FC01EF5CF54F2491FC01E35EB8
:100CB000F54F3491FC01E75FF54FE491EE23C9F065
:100CC000222339F0233001F1A8F4213019F1223028
:100CD00029F1F0E0EE0FFF1FE150F64FA591B4911E
:100CE0008FB7F894EC91611126C030953E233C9368
:100CF0008FBF08952730A9F02830C9F0243049F774
:100D0000809180008F7D03C0809180008F778093D9
:100D10008000DFCF84B58F7784BDDBCF84B58F7D36
:100D2000FBCF8091B0008F778093B000D2CF8091BD
:100D3000B0008F7DF9CF3E2BDACFCF93DF9390E0D9
:100D4000FC01E35EF54F2491875F954FFC01849190
:100D50008823D1F090E0880F991FFC01EB50F64FEB
:100D6000A591B491FC01E150F64FC591D491611168
:100D70000EC09FB7F8948C91E22FE0958E238C9350
:100D80002881E223E8839FBFDF91CF9108958FB739
:100D9000F894EC91E22BEC938FBFF6CF3FB7F89429
:100DA0008091D4029091D502A091D602B091D70241
:100DB00026B5A89B05C02F3F19F00196A11DB11DB6
:100DC0003FBFBA2FA92F982F8827BC01CD01620FF2
:100DD000711D811D911D42E0660F771F881F991FAD
:100DE0004A95D1F70895089590E080E00895CF9254
:100DF000DF92EF92FF920F931F93CF93DF938C01BB
:100E0000DB01EC91E15020E0E53020F4F0E0EE5E13
:100E1000FE4F2081C091F30260E072E18AE790E02A
:100E200004C095958795779567952A95D2F70E9486
:100E3000C5166B017C01BCE0CB9FE0011124C95EAB
:100E4000DE4FF8016081718190E080E00E94C3165E
:100E50002C813D814E815F810E94E2179B01AC0194
:100E6000C701B6010E9422160E949416CB01DF91A1
:100E7000CF911F910F91FF90EF90DF90CF90089549
:100E8000CF93DF93382FC091F3028CE0C89FE0012D
:100E90001124C95EDE4F832F6A30710581059105EB
:100EA00020F46AE070E080E090E00E94C3162C819C
:100EB0003D814E815F810E94E2179B01AC0160E0A1
:100EC00074E284EF9AE40E9422160E94941661153F
:100ED0007105810521E0920738F56115710520E45F
:100EE0008207910520F56115710528E082079105BB
:100EF00008F56115710521E082079105F0F430E0F5
:100F000021E004C096958795779567953A95D2F735
:100F100070930901609308012093D20281E08093CD
:100F2000D102DF91CF9108953AE025E0EACF38E091
:100F300024E0E7CF36E023E0E4CF33E022E0E1CF66
:100F4000CF92DF92EF92FF926B017C018091F402CD
:100F5000882329F085E08A95F1F70000F7CF81E03A
:100F60008093F4028091F1029091F202009711F0C7
:100F70000E94C714C701B6010E944007D092030126
:100F8000C09202011092F402FF90EF90DF90CF9098
:100F900008954F925F926F927F928F929F92AF923D
:100FA000BF92CF92DF92EF92FF920F931F93CF9356
:100FB000DF9300D000D0CDB7DEB78091F402882354
:100FC00029F025E02A95F1F70000F7CF81E0809322
:100FD000F402609104017091050190E080E00E94AC
:100FE000C3162B013C01E091F3028CE08E9FF001CF
:100FF0001124E95EFE4F2481358146815781C3016A
:10100000B2010E94E2179B01AC0160E074E284EF40
:101010009AE40E9422160E9494166B017C01609152
:1010200006017091070190E080E00E94C3164B0119
:101030005C01E091F3029CE09E9FF0011124E95EC7
:10104000FE4F2481358146815781C501B4010E943C
:10105000E2179B01AC0160E074E284EF9AE40E9425
:1010600022160E94941669837A838B839C83A30142
:101070009201C501B4010E9422160E949A172BE921
:1010800030E24AE95EE30E9422160E940B160E949B
:101090009416962E8091F1029091F202009711F031
:1010A0000E94C714EBE09E9EC00111240E942B14E5
:1010B0005C0190E00BE0A1E0B2E015E0991508F0CA
:1010C00064C0F501909FE00DF11D1124C114D104FD
:1010D000E10421E0F20670F114838AE0282F30E069
:1010E000B701A601082E04C07695679557954795D8
:1010F0000A94D2F751834083B701A601769567958C
:101100005795479549805A806B807C8044155505DA
:101110006605770580F57301620104C0F694E794D3
:10112000D794C7948A95D2F7D382C2829E5F6A0110
:101130007B01C4CFC114D10480E4E806F10428F097
:1011400084E0482E448288E0C9CFC114D10428E04D
:10115000E206F10420F083E0848386E0BFCFC1146F
:10116000D10421E0E206F10418F0B48383E0B6CFA5
:10117000A48380E0B3CF2F5F3F4F04C0F694E79481
:10118000D794C7942A95D2F7CFCFB092F202A0920B
:10119000F102F12C8BE0E82EF91408F0A6C0FE9CB9
:1011A0003001112483010A0D1B1DC3010B968A0D0A
:1011B0009B1D9A838983F8018481E981FA81848364
:1011C000F80182819381E981FA8193838283F80116
:1011D000C280D380608171816C197D0990E080E0CC
:1011E0000E94C3162CE53FE842EC5EE30E94E21742
:1011F0002B013C01B60190E080E00E94C3169B01E8
:10120000AC01C301B2010E949F150E949416F8011F
:1012100073836283E981FA81718360831A8309830E
:10122000812C09811A810C5F1F4FB80189819A8135
:101230000E94F7066C01B80189819A8102960E948A
:10124000F7068C01E981FA81608171818281938145
:10125000681B790B90E080E00E94C3162B013C01D3
:101260000C191D09B80190E080E00E94C31620E02F
:1012700030E04AE754E40E94E2170E94941690E09E
:1012800080E00E94C3169B01AC01C301B2010E9421
:1012900022162B013C010E949416E981FA81728783
:1012A000618790E080E00E94C3169B01AC01C301FE
:1012B000B2010E949E1520E034E244E759E40E9406
:1012C000E2170E949416E981FA8165837683878309
:1012D00090873B96FA83E983F1E08F1203C0F39481
:1012E000F3945ACF882483949CCF9092F00210926A
:1012F000EF0281E080930B0180930A018091EF025D
:10130000F5012BE0829FE00DF11D11248081918178
:1013100090930901809308011092EB021092EC0265
:101320001092ED021092EE021092EA021092F40274
:101330000F900F900F900F90DF91CF911F910F9111
:10134000FF90EF90DF90CF90BF90AF909F908F90E5
:101350007F906F905F904F9008958091EA0288236C
:1013600069F0609102017091030190E080E00E94B9
:1013700040071092DE021092DD0208950E94C90714
:10138000F8CFCF93DF93EC0160E08E810E9451068D
:1013900061E08E810E94510660E08E810E945106BC
:1013A0008BE891E00197F1F7DF91CF910895CF920B
:1013B000DF92EF92FF920F931F93CF93DF936C0115
:1013C0007C0187E0E80EF11CD0E0C0E0062F10E0C1
:1013D000B8010C2E02C0759567950A94E2F761700A
:1013E000F70181917F010E9451062196C430D105F9
:1013F00079F7C601DF91CF911F910F91FF90EF9088
:10140000DF90CF900C94C109CF92DF92EF92FF92C0
:101410000F931F93CF93DF93EC01F62E642F8C81F3
:101420000E9451068D818F3F19F060E00E945106A5
:101430000F2D10E08F8584FF25C06E0187E0C80E58
:10144000D11CF12CE12CB8010E2C02C075956795CA
:101450000A94E2F76170F60181916F010E945106D2
:10146000FFEFEF1AFF0A88E0E816F10461F7CE01FA
:10147000DF91CF911F910F91FF90EF90DF90CF9070
:101480000C94C109B80184E0759567958A95E1F7D8
:10149000CE010E94D7096F2DCE01DF91CF911F9110
:1014A0000F91FF90EF90DF90CF900C94D70940E020
:1014B000682F82E993E00C94040ACF93DF93823083
:1014C00029F49091A10398609093A1038093A503C0
:1014D0001092A60380E48093A70380E18093A80381
:1014E00080E58093A90361E0809196030E949D06A8
:1014F000809197038F3F19F061E00E949D0661E0A3
:10150000809198030E949D06C2E9D3E09E01225972
:1015100033408091A10384FD0BC084E090E02196CC
:101520002817390744F461E08E810E949D06EECFB2
:1015300088E090E0F4CF8BE39DE00197F1F760E065
:10154000809196030E94510660E0809198030E946A
:101550005106809197038F3F19F060E00E94510679
:101560008091A10384FD39C063E082E993E00E9489
:10157000D709CBE4D6E4CE010197F1F763E082E925
:1015800093E00E94D7092197F1F763E082E993E0A5
:101590000E94D70983E592E00197F1F762E082E9C2
:1015A00093E00E94D7098091A10380620E94570AAC
:1015B00084E08093A2038CE00E94570A81E00E949D
:1015C000570A8BE39FE10197F1F782E08093A30331
:1015D00086E0DF91CF910C94570A80620E94570AEF
:1015E0008BE496E40197F1F78091A10380620E9459
:1015F000570A83E592E00197F1F78091A103806299
:101600000E94570AD0CF41E00E94040A81E090E096
:101610000895FB0101900020E9F73197AF01461BC7
:10162000570BDC01ED91FC910280F381E02D0994D0
:101630008F929F92AF92BF920F931F93CF93DF939E
:10164000CDB7DEB7A1970FB6F894DEBF0FBECDBF02
:1016500019A2423008F44AE08E010F5D1F4F842E1C
:10166000912CB12CA12CA50194010E947C15E62F90
:10167000B901CA01EA3004F5E05DD801EE938D01AD
:10168000232B242B252B79F790E080E0109729F06D
:10169000BD0185EF92E00E94090BA1960FB6F89468
:1016A000DEBF0FBECDBFDF91CF911F910F91BF90D5
:1016B000AF909F908F900895E95CDFCFCF93DF9339
:1016C000BC0190E080E04AE00E94180BEC0169E761
:1016D00072E085EF92E00E94090B8C0F9D1FDF9155
:1016E000CF910895CF93DF93BC0185EF92E00E94E4
:1016F000090BEC0169E772E085EF92E00E94090BAB
:101700008C0F9D1FDF91CF9108950F931F93CF935F
:10171000DF93CDB7DEB760970FB6F894DEBF0FBE8C
:10172000CDBF8091EA028E010F5F1F4F8130D9F14A
:1017300000F1823009F44CC0E091A503E23008F0DA
:1017400050C0E150F0E0EE56FC4F848980680E9462
:10175000570AB80182E993E00E94090B60960FB620
:10176000F894DEBF0FBECDBFDF91CF911F910F91D7
:101770000895809107018F93809106018F93809146
:1017800005018F93809104018F938CE792E09F93E2
:101790008F931F930F930E947C180FB6F894DEBFAF
:1017A0000FBECDBFC9CF809103018F9380910201FD
:1017B0008F9389E892E09F938F931F930F930E94DA
:1017C0007C180F900F900F900F900F900F90B4CF48
:1017D000809103018F93809102018F9388E992E0B9
:1017E000EACFE1E0AFCFCF93DF93CDB7DEB760971D
:1017F0000FB6F894DEBF0FBECDBFE091F3028CE0D0
:10180000E89FF0011124E95EFE4F6081718140E1A3
:1018100050E0CE0101960E945715E1E08091A503AA
:101820008111E0E0E195F0E0EE56FC4F848980689C
:101830000E94570A67EA72E082E993E00E94090B6E
:10184000E1E08091A5038111E0E0E195F0E0EE5642
:10185000FC4F848980680E94570ABE016F5F7F4FEA
:1018600082E993E00E94090B60960FB6F894DEBF00
:101870000FBECDBFDF91CF9108950C946615FF92F6
:101880000F931F93CF93DF93EC01F62E08811981FC
:10189000C8010E946615F81621F06F2DC8010E943C
:1018A0006E15CE01DF91CF911F910F91FF9008959A
:1018B000EF92FF920F931F93CF93DF93CDB7DEB7D5
:1018C000C055D1090FB6F894DEBF0FBECDBF8091D1
:1018D000D802811106C085EF92E00E948A058093AC
:1018E000D0028091D002833509F452C138F58E348C
:1018F00009F4C1C0C8F48C3409F495C08D3409F4DE
:10190000A9C01092D80281E08093DF02C05BDF4F54
:101910000FB6F894DEBF0FBECDBFDF91CF911F9100
:101920000F91FF90EF900895803509F4B8C082358B
:1019300041F78091020190910301AEC0863609F40F
:1019400050C0C0F5883509F436C18336D1F66091B0
:10195000F30282E090E09A838983CE0101960E948F
:101960003F0C6091EA0283E090E09A838983CE0184
:1019700001960E943F0C81E090E09A83898361E0A8
:10198000CE0101960E943F0C10910201609103016B
:1019900084E090E09A838983CE0101960E943F0CF7
:1019A00085E090E09A838983612FCE0101960E94A1
:1019B0003F0CA7CF803709F465C0833709F4B9C05D
:1019C0008E3609F09ECF4AE06BE170E080E090E057
:1019D0000E94180B69E772E085EF92E00E94090B04
:1019E00090CF81E08093EA0285EF92E00E94AC05FF
:1019F0000297D4F385EF92E00E948A05182F85EFB5
:101A000092E00E948A0560E0782F612B70930301B9
:101A1000609302016A30710508F473CF90E080E0B2
:101A20000E94A0076ECF07E111E08BE5E82E82E06F
:101A3000F82EF80160817181CE0101960E94501547
:101A4000CE0101960E94720B045F1F4FE016F10653
:101A500081F757CF85EF92E00E94AC051816190662
:101A6000CCF785EF92E00E948A05833008F049CFD9
:101A70008093EA0246CF6091F30270E090E080E04C
:101A80004AE0A6CFE091F3028CE0E89FF001112438
:101A9000E95EFE4F808591850E945E0B32CFE0911A
:101AA000F3028CE0E89FF0011124E95EFE4F008410
:101AB000F185E02D85919491F12CE12C1CE0E091D1
:101AC000F3021E9FF0011124E95EFE4F808591858F
:101AD000E816F90600F5E114F10431F068EB72E064
:101AE00085EF92E00E94090BE091F3021E9FF00146
:101AF0001124E95EFE4F0280F381E02DEE0DFF1D03
:101B0000649170E090E080E04AE00E94180BEFEFF3
:101B1000EE1AFE0AD4CF8BE792E00E94720BE0919E
:101B2000F3021E9FF0011124E95EFE4F828593852A
:101B3000B3CF1092EA0285EF92E00E94AC050497C1
:101B4000D4F385EF92E00E948A05182F85EF92E08A
:101B50000E948A0520E0382F212B30930501209325
:101B6000040185EF92E00E948A0585EF92E00E94D1
:101B70008A0584E690E0909305018093040180EA51
:101B80009FE090930701809306010E94C907B9CE98
:101B900085EF92E00E94AC0518161906CCF785EF88
:101BA00092E00E948A058B3108F0ABCE8093F3025D
:101BB0000E94AD09A6CE8091F3028A31B9F4109249
:101BC000F3020E94AD09E091F3028CE0E89FF0017E
:101BD0001124E95EFE4F60817181CE0101960E9461
:101BE0005015CE0101960E94720B8BCE8091F302AC
:101BF0008F5F8093F302E5CF0E94B80581110C94AA
:101C0000580C08951F920F920FB60F9211242F9324
:101C10003F934F935F936F937F938F939F93AF9374
:101C2000BF93EF93FF9385EF92E00E94C205FF916F
:101C3000EF91BF91AF919F918F917F916F915F9144
:101C40004F913F912F910F900FBE0F901F901895BD
:101C50001F920F920FB60F9211242F938F939F9381
:101C6000EF93FF93E0910503F09106038081E091EB
:101C70000B03F0910C0382FD1BC0908180910E0339
:101C80008F5F8F7320910F03821741F0E0910E0355
:101C9000F0E0EB50FD4F958F80930E03FF91EF9195
:101CA0009F918F912F910F900FBE0F901F901895BD
:101CB0008081F4CF1F920F920FB60F9211242F93B1
:101CC0003F938F939F93AF93BF938091D90290914D
:101CD000DA02A091DB02B091DC023091D30223E062
:101CE000230F2D3758F50196A11DB11D2093D30266
:101CF0008093D9029093DA02A093DB02B093DC02C6
:101D00008091D4029091D502A091D602B091D702D1
:101D10000196A11DB11D8093D4029093D502A0938A
:101D2000D602B093D702BF91AF919F918F913F910F
:101D30002F910F900FBE0F901F90189526E8230F3C
:101D40000296A11DB11DD2CF1F920F920FB60F9216
:101D500011242F933F934F935F936F937F938F93B0
:101D60009F93AF93BF93EF93FF93A091F302809162
:101D7000DD029091DE022CE0A29FD0011124A95E29
:101D8000BE4F1296ED91FC91E80FF91F8491E091FE
:101D9000CF02E827E13009F467C008F454C0E2300C
:101DA00009F468C0E33009F473C08091000188230E
:101DB00009F474C08091DD029091DE020196909347
:101DC000DE028093DD02E091F3028091DD029091CA
:101DD000DE022CE0E29FF0011124E95EFE4F208537
:101DE00031852817390721F41092DE021092DD02A6
:101DF0008091D102882371F080918100887F809347
:101E000081009091D20280918100892B8093810082
:101E10001092D1028091080190910901909389005C
:101E200080938800FF91EF91BF91AF919F918F9127
:101E30007F916F915F914F913F912F910F900FBEC6
:101E40000F901F90189560E08CE00E94510661E0B1
:101E50008DE00E94510660E082E00E94510661E040
:101E600083E00E945106A1CF61E08CE00E94510600
:101E700060E0EECF60E08CE00E94510661E08DE012
:101E80000E94510661E082E00E94510660E0E8CFC6
:101E900061E08CE00E94510660E0F1CF8091DD02AC
:101EA0009091DE02892B71F4E091F3028CE0E89FBF
:101EB000F0011124E95EFE4F808591859093DE024A
:101EC0008093DD028091DD029091DE020197909374
:101ED000DE028093DD028CCF1F920F920FB60F921D
:101EE00011240F931F932F933F934F935F936F93FF
:101EF0007F938F939F93EF93FF938091EA028111D9
:101F0000E5C08091F4028111E1C021E02093F40248
:101F100030910A018091F1029091F202332399F0FD
:101F200010920A012093D1022091EF02FC013BE0C4
:101F3000239FE00DF11D112424812093D2022091D2
:101F4000D2022093CE0220910B01213009F0CFC0A4
:101F50002091EF024091EB025091EC026091ED0272
:101F60007091EE02FC013BE0239FE00DF11D112476
:101F70000581168127813085400F511F621F731F15
:101F80004093EB025093EC026093ED027093EE02EB
:101F90004091EB025091EC026091ED027091EE02E3
:101FA000413452446F40710590F02091CD022F5F73
:101FB0002093CD024091EB025091EC026091ED0232
:101FC0007091EE02405452446F407109D9CF309164
:101FD000EF0240910801509109012BE0FC01329F72
:101FE000E00DF11D1124628173813091EF026417BD
:101FF0007507C0F46091CD0240910801509109012C
:10200000461B5109329F800D911D1124FC018185D1
:102010009285481B590B5093090140930801109277
:10202000CD0252C03F5F3093EF021092EB0210924C
:10203000EC021092ED021092EE024091EF0230910C
:10204000F0024317E8F43091EF02FC01329FE00DFB
:10205000F11D1124408151815093090140930801E1
:102060004091EF023091CE02429F800D911D1124CC
:10207000FC018481831741F181E080930A0124C02F
:102080003091EF0231503093EF0210920B013091FA
:10209000EF02FC01329FE00DF11D112442815381BA
:1020A00050930901409308014091EF023091CE0214
:1020B000429F800D911D1124FC018481831719F02A
:1020C00081E080930A015F9A1092F402FF91EF91F0
:1020D0009F918F917F916F915F914F913F912F9140
:1020E0001F910F910F900FBE0F901F901895209188
:1020F000EF024091EB025091EC026091ED02709181
:10210000EE02FC013BE0239FE00DF11D112405814F
:10211000168127813085400F511F621F731F409326
:10212000EB025093EC026093ED027093EE0240914B
:10213000EB025091EC026091ED027091EE0241349D
:1021400052446F40710590F02091CD022F5F209393
:10215000CD024091EB025091EC026091ED02709142
:10216000EE02405452446F407109D9CF2091EF02E2
:1021700040910801509109013BE0FC01239FE00DD3
:10218000F11D11246081718146175707C8F46091D1
:10219000EF022091CD024091080150910901FC010C
:1021A000639FE00DF11D1124240F352F311D818512
:1021B0009285820F931F90930901809308012FCF7E
:1021C0002091EF0221502093EF021092EB02109227
:1021D000EC021092ED021092EE022091EF0220919B
:1021E000EF02FC01239FE00DF11D11244281538178
:1021F00050930901409308014091EF022091CE02D3
:10220000439F800D911D1124FC018481821334CFE2
:102210005BCF1F920F920FB60F9211242F938F93C3
:102220009F9390917800809179008927982789273A
:102230002091CC02222379F02130D1F080917A00D4
:10224000806480937A009F918F912F910F900FBEA1
:102250000F901F9018959093E1028093E00280E424
:1022600080937C0081E08093CC028093E202E6CFF1
:102270009093E8028093E70281E480937C001092BF
:10228000CC022093E902DACFE5EFF2E0138212826A
:1022900088EE93E0A0E0B0E084839583A683B783C3
:1022A0008FE592E09183808385EC90E09587848729
:1022B00084EC90E09787868780EC90E0918B808B10
:1022C00081EC90E0938B828B82EC90E0958B848BF9
:1022D00086EC90E0978B868B118E128E138E148E67
:1022E000E2E9F3E01382128281E792E09183808336
:1022F00088E084838FEF858389E0868384E0878309
:1023000085E0808786E0818787E082871386148650
:1023100015861686178681E00C945D0A789484B53C
:10232000826084BD84B5816084BD85B5826085BDD1
:1023300085B5816085BD80916E00816080936E005F
:102340001092810080918100826080938100809151
:102350008100816080938100809180008160809302
:1023600080008091B10084608093B1008091B000C2
:1023700081608093B00080917A00846080937A00BD
:1023800080917A00826080937A0080917A008160E7
:1023900080937A0080917A00806880937A0010920E
:1023A000C100E0910503F0910603D2E0D083E091F3
:1023B0000103F09102031082E0910303F091040302
:1023C00080E1808310920D03E0910903F0910A03EC
:1023D00086E08083E0910703F091080380818061AB
:1023E0008083E0910703F0910803808188608083F7
:1023F000E0910703F0910803808180688083E09179
:102400000703F091080380818F7D80831092D802AA
:1024100081E090E00E943D0C8F3F09F038C110929E
:10242000F30288EB9BE09093030180930201D09329
:10243000EA0282E00E945D0A6AEB72E082E993E0C0
:102440000E94090B0E94CE064B015C0130EDC32EA9
:1024500037E0D32EE12CF12C0E94CE0668197909C1
:102460008A099B09683E734081059105A8F381E0C4
:10247000C81AD108E108F10828EE820E23E0921E66
:10248000A11CB11CC114D104E104F10429F70E947C
:10249000F30B0E94850BF89410928000109281003B
:1024A000109285001092840088EE93E0909389004A
:1024B0008093880080918100886080938100809162
:1024C000810081608093810080916F0082608093A1
:1024D0006F001092B0001092B1001092B20089EF1C
:1024E0008093B3008091B00082608093B0008091AF
:1024F000B10084608093B10080917000826080930D
:10250000700080E480937C0080917A0080688093E2
:102510007A0080917A00806280937A0080917B00BB
:10252000887F80937B0080917A00876080937A0017
:1025300080917A00886080937A0061E088E00E9450
:102540009D0661E089E00E949D0660E08AE00E94AD
:102550009D0661E08CE00E949D0661E08DE00E9496
:102560009D0661E082E00E949D0661E083E00E949A
:102570009D06789480917A00806480937A006091BF
:1025800002017091030190E080E00E94400704E6A0
:1025900010E090EAE92E9FE0F92E24ECC22E29E00B
:1025A000D22EDAE1BB24B3948091EA028230E9F4BE
:1025B0008091E9028823C9F01092E9026091E70254
:1025C0007091E80284E0660F771F8A95E1F7613029
:1025D00080E4780710F060E070E47093030160938A
:1025E000020190E080E00E9440072FB7F8948091AC
:1025F000D9029091DA02A091DB02B091DC022FBFE8
:102600004091E3025091E4026091E5027091E6028C
:102610003C014D01641A750A860A970AB401A301A8
:10262000483C51056105710550F18093E302909398
:10263000E402A093E502B093E6028091E2028823CF
:1026400071F01092E2028091E0029091E1028F3EDF
:1026500022E0920708F44DC0B0920101C0E08091E1
:10266000EA02823011F40E94850B8091DF028823F8
:1026700031F00E94F30B0E94850B1092DF020E9442
:10268000B805882309F490CF0E94580C8DCF82E0C2
:1026900090E00E943D0C8093F30283E090E00E9462
:1026A0003D0C8093EA0284E090E00E943D0CD82F1C
:1026B00085E090E00E943D0C9D2F90930301809354
:1026C00002012091F3022B3110F01092F3022091BD
:1026D000EA02233018F021E02093EA0289399A4374
:1026E00008F4A7CE80EA9FE0909303018093020153
:1026F000A0CE853F21E09207D0F58D3221E09207F0
:10270000C0F587399105B8F583339105B0F5C297C7
:10271000B1F5CC2309F4A3CF80910101882309F4FA
:102720009ECFC235F1F16CF5C43409F44FC0CC34FE
:1027300009F095CF8091EA02813009F090CF609145
:102740000201709103016536710508F488CF645663
:10275000710970930301609302016A30710520F0E2
:1027600090E080E00E94A0070E94850B78CFC3E52F
:10277000D3CFCCE4D1CFC4E4CFCFC5E5CDCFC2E534
:10278000CBCFC335F1F1C53509F069CF1092DE0228
:102790001092DD028091F3028A3179F51092F302F2
:1027A0001FC08091EA02813009F059CF6091020187
:1027B0007091030160388EE3780708F050CF6C59B0
:1027C0007F4F7093030160930201CACF1092DE0223
:1027D0001092DD028091F302811109C0D093F302BF
:1027E0000E94AD09109201010E94F30B38CF809135
:1027F000F30281508093F302F3CF8091F3028F5F55
:10280000F9CF8091EA028F5F8093EA028091EA0219
:10281000833011F41092EA028091EA02813051F47F
:10282000D0920301C092020164EC79E080E090E074
:102830000E94A0078091EA0281110AC0109305014D
:1028400000930401F0920701E09206010E94C9077B
:102850001092010189CF0F931F93CF93DF938230A2
:10286000910510F482E090E0E091AC03F091AD03AB
:1028700030E020E0B0E0A0E0309799F42115310578
:1028800009F44AC0281B390B24303105D8F58A8158
:102890009B816115710589F1FB0193838283FE01A0
:1028A00011C0408151810281138148175907E0F01E
:1028B0004817590799F4109761F012960C931297E4
:1028C00013961C933296CF01DF91CF911F910F91F8
:1028D00008950093AC031093AD03F4CF2115310597
:1028E00051F04217530738F0A901DB019A01BD01ED
:1028F000DF01F801C1CFEF01F9CF9093AD038093D1
:10290000AC03CDCFFE01E20FF31F819391932250D0
:10291000310939832883D7CF2091AA033091AB03A3
:10292000232B41F420910E0130910F013093AB0322
:102930002093AA0320910C0130910D01211531053E
:1029400041F42DB73EB74091100150911101241B65
:10295000350BE091AA03F091AB03E217F307A0F463
:102960002E1B3F0B2817390778F0AC014E5F5F4FE5
:102970002417350748F04E0F5F1F5093AB03409369
:10298000AA03819391939FCFF0E0E0E09CCFCF9397
:10299000DF930097E9F0FC01329713821282A09135
:1029A000AC03B091AD03ED0130E020E01097A1F44D
:1029B00020813181820F931F2091AA033091AB03B4
:1029C0002817390709F061C0F093AB03E093AA031D
:1029D000DF91CF910895EA01CE17DF07E8F54A812C
:1029E0005B819E0141155105B1F7E901FB83EA8343
:1029F00049915991C40FD51FEC17FD0761F48081EF
:102A000091810296840F951FE901998388838281C1
:102A100093819B838A83F0E0E0E012968D919C91F4
:102A200013970097B9F52D913C911197CD0102961E
:102A3000820F931F2091AA033091AB032817390707
:102A400039F6309751F51092AD031092AC03B09364
:102A5000AB03A093AA03BCCFD383C283408151812F
:102A6000840F951FC817D90761F44E5F5F4F8881A7
:102A70009981480F591F518340838A819B81938399
:102A800082832115310509F0B0CFF093AD03E093B7
:102A9000AC039ECFFD01DC01C0CF13821282D7CFE1
:102AA000FB01DC0105900D920020E1F70895FB0188
:102AB000DC014150504048F005900D920020C9F7CC
:102AC00001C01D9241505040E0F70895F999FECFA2
:102AD00092BD81BDF89A992780B50895262FF9995E
:102AE000FECF1FBA92BD81BD20BD0FB6F894FA9AF1
:102AF000F99A0FBE01960895A1E21A2EAA1BBB1BDC
:102B0000FD010DC0AA1FBB1FEE1FFF1FA217B307B9
:102B1000E407F50720F0A21BB30BE40BF50B661FCF
:102B2000771F881F991F1A9469F760957095809593
:102B300090959B01AC01BD01CF0108955058BB2772
:102B4000AA270E94B6150C9440170E94321738F03D
:102B50000E94391720F039F49F3F19F426F40C94A1
:102B60002F170EF4E095E7FB0C940017E92F0E9455
:102B7000511758F3BA17620773078407950720F0B7
:102B800079F4A6F50C948B170EF4E0950B2EBA2F62
:102B9000A02D0B01B90190010C01CA01A001112463
:102BA000FF27591B99F0593F50F4503E68F11A160F
:102BB000F040A22F232F342F4427585FF3CF4695A0
:102BC00037952795A795F0405395C9F77EF41F16C2
:102BD000BA0B620B730B840BBAF09150A1F0FF0F8C
:102BE000BB1F661F771F881FC2F70EC0BA0F621F78
:102BF000731F841F48F4879577956795B795F79568
:102C00009E3F08F0B0CF9395880F08F09927EE0FFC
:102C10009795879508950E94731790F09F3748F411
:102C2000911116F40C948C1760E070E080E89FE33B
:102C3000089526F01B16611D711D811D0C94061749
:102C40000C9421170E9436160C9440170E943917D5
:102C500058F00E94321740F029F45F3F29F00C949D
:102C6000001751110C948C170C942F170E945117B8
:102C700068F39923B1F3552391F3951B550BBB27AB
:102C8000AA2762177307840738F09F5F5F4F220FF0
:102C9000331F441FAA1FA9F335D00E2E3AF0E0E8E7
:102CA00032D091505040E695001CCAF72BD0FE2F31
:102CB00029D0660F771F881FBB1F261737074807C5
:102CC000AB07B0E809F0BB0B802DBF01FF2793587D
:102CD0005F4F3AF09E3F510578F00C9400170C942A
:102CE0008C175F3FE4F3983ED4F38695779567950C
:102CF000B795F7959F5FC9F7880F911D96958795B2
:102D000097F90895E1E0660F771F881FBB1F6217D0
:102D100073078407BA0720F0621B730B840BBA0B8E
:102D2000EE1F88F7E09508950E94591788F09F5785
:102D300098F0B92F9927B751B0F0E1F0660F771FDF
:102D4000881F991F1AF0BA95C9F714C0B13091F0D5
:102D50000E948B17B1E008950C948B17672F782F82
:102D60008827B85F39F0B93FCCF38695779567959A
:102D7000B395D9F73EF490958095709561957F4F06
:102D80008F4F9F4F0895E89409C097FB3EF49095AC
:102D90008095709561957F4F8F4F9F4F9923A9F034
:102DA000F92F96E9BB279395F695879577956795C3
:102DB000B795F111F8CFFAF4BB0F11F460FF1BC007
:102DC0006F5F7F4F8F4F9F4F16C0882311F096E99A
:102DD00011C0772321F09EE8872F762F05C0662348
:102DE00071F096E8862F70E060E02AF09A95660F01
:102DF000771F881FDAF7880F9695879597F90895BA
:102E000097F99F6780E870E060E00895882371F487
:102E1000772321F09850872B762F07C0662311F473
:102E200099270DC09051862B70E060E02AF09A95AA
:102E3000660F771F881FDAF7880F9695879597F9A1
:102E400008959F3F31F0915020F4879577956795CD
:102E5000B795880F911D9695879597F908959FEFDF
:102E600080EC089500240A94161617061806090621
:102E7000089500240A9412161306140605060895F0
:102E8000092E0394000C11F4882352F0BB0F40F478
:102E9000BF2B11F460FF04C06F5F7F4F8F4F9F4FB8
:102EA000089557FD9058440F551F59F05F3F71F03A
:102EB0004795880F97FB991F61F09F3F79F08795A1
:102EC0000895121613061406551FF2CF4695F1DF2A
:102ED00008C0161617061806991FF1CF86957105BA
:102EE0006105089408950E945917A0F0BEE7B9172C
:102EF00088F4BB279F3860F41616B11D672F782F12
:102F00008827985FF7CF869577956795B11D93953C
:102F10009639C8F30895E894BB2766277727CB0135
:102F200097F9089516F00C9421170C942F176894B4
:102F30000C9400170E945917A8F39923C1F3AEF31C
:102F4000DF93CF931F930F93FF92C92FDD27882321
:102F50002AF02197660F771F881FDAF720E030E00C
:102F600040E85FEB9FE3883920F0803E38F02196FF
:102F70008F770E949F15E8E6F0E004C00E949F153D
:102F8000E5E9F0E00E944F188B01BE01EC01FB2E39
:102F90006F5771097595771F880B990B0E94C5169D
:102FA00028E132E741E35FE30E94F517AF2D980176
:102FB000AE01FF900F911F91CF91DF910E94B61546
:102FC0000C9440170E94F5170C9440170E9432177A
:102FD00038F00E94391720F0952311F00C94001757
:102FE0000C942F1711240C948C170E94511770F316
:102FF000959FC1F3950F50E0551F629FF001729F9E
:10300000BB27F00DB11D639FAA27F00DB11DAA1FAC
:10301000649F6627B00DA11D661F829F2227B00DF9
:10302000A11D621F739FB00DA11D621F839FA00D84
:10303000611D221F749F3327A00D611D231F849FD4
:10304000600D211D822F762F6A2F11249F5750402B
:103050009AF0F1F088234AF0EE0FFF1FBB1F661FA6
:10306000771F881F91505040A9F79E3F510580F06F
:103070000C9400170C948C175F3FE4F3983ED4F344
:10308000869577956795B795F795E7959F5FC1F713
:10309000FE2B880F911D9695879597F90895DF93DC
:1030A000CF931F930F93FF92EF92DF927B018C01DE
:1030B000689406C0DA2EEF010E94F517FE01E8942D
:1030C000A5912591359145915591A6F3EF010E9467
:1030D000B615FE019701A801DA9469F7DF90EF9029
:1030E000FF900F911F91CF91DF910895EE0FFF1F79
:1030F0000590F491E02D0994AEE0B0E0E2E8F8E14B
:103100000C942B1B0D891E8986E08C831A830983FE
:103110008FEF9FE79E838D83AE01475E5F4F6F8980
:10312000788DCE0101960E949F182F813885020F5D
:10313000131FF80110822E96E4E00C94471BABE0BD
:10314000B0E0E5EAF8E10C941D1B7C013B018A012B
:10315000FC0117821682838181FFC8C1CE010196CE
:103160005C01F7019381F30193FD859193FF8191B8
:103170003F01882309F453C1853239F493FD8591C9
:1031800093FF81913F01853229F4B70190E00E94BD
:103190008F1AE7CF912C212C312CFFE1F31538F059
:1031A0008B3211F190F4803209F1833229F137FC2E
:1031B0003CC020ED280F2A3050F536FE20C08AE0B2
:1031C000989E200D1124922E06C08D3291F08033EE
:1031D00071F7689430F8F30193FD859193FF819125
:1031E0003F018111DACF21C0689431F8689432F838
:1031F000F2CF689433F8EFCF689434F8ECCFEAE07C
:103200002E9E200D1124222E689435F8E4CF8E32A4
:1032100029F436FC04C1689436F8DDCF8C3619F4F5
:10322000689437F8D8CF8836B1F2982F9F7D95549F
:103230009330E0F08336A1F18337C1F1833509F093
:1032400063C02801F2E04F0E511CF801C080D1800C
:10325000692D70E036FC02C06FEF7FEFC6010E945F
:10326000791A4C01689437F882010AC00C5F1F4F2D
:10327000FFE3F98388248394912C6501E89437F85F
:1032800033FE2DC0522C8114910471F5552009F4A0
:1032900068CFB70180E290E00E948F1A5A94F6CF6F
:1032A000F801808189830E5F1F4FE4CF2801F2E08F
:1032B0004F0E511CF801C080D180692D70E036FCA2
:1032C00002C06FEF7FEFC6010E94841A4C01820199
:1032D000D5CFB70180E290E00E948F1A2A9428147B
:1032E000190409F0B0F7CECFF60137FC859137FE0F
:1032F00081916F01B70190E00E948F1A51105A948A
:10330000F1E08F1A9108BFCF843619F0893609F0A1
:1033100077C0F80137FE6BC0608171818281938133
:103320000C5F1F4FF32DFF763F2E97FF09C090953E
:103330008095709561957F4F8F4F9F4F689437F8B8
:103340002AE030E0A5010E94BF1AC82ECA188C2CB2
:10335000432C36FE0CC0E89440F8C91440F434FE07
:1033600005C032FC03C0F32DFE7E4F2E892C44FE97
:1033700095C0FE01EC0DF11D8081803309F087C0FE
:10338000242D297E422E842D8870582E43FC95C012
:1033900040FE8FC09C2C821418F42C0C922C981890
:1033A00044FE91C0B70180E390E00E948F1A42FE74
:1033B00009C088E790E041FE02C088E590E0B701CF
:1033C0000E948F1AC91408F48AC0CA94D12C9FEFA6
:1033D000C91AD90ACA0CDB1CF60182916F01B70128
:1033E00090E00E948F1AAC14BD04B1F74FCF6081FA
:1033F0007181072E000C880B990B0E5F1F4F92CF27
:10340000D32CE894D4F82AE030E0853739F1232D25
:10341000297FD22E8F3601F148F48835A9F0F701C3
:10342000868197812B96E2E10C94391B803749F015
:103430008837A9F7D4FE02C06894D2F820E130E0C2
:103440000DC06894D4F8F6CF34FE03C0822F866096
:10345000D82E20E132E002C028E030E0F801D7FEAB
:103460000FC060817181828193810C5F1F4FA50124
:103470000E94BF1AC82ECA183D2CE89437F867CFAF
:103480006081718190E080E00E5F1F4FF0CF42FCC1
:1034900002C0839478CF8394839475CF842D8678EB
:1034A00009F471CFF6CFB70180E290E00E948F1A45
:1034B00083948214C0F3512C73CF522C5818821469
:1034C00008F46ECFF8CF842D867809F47BCF8BE299
:1034D00041FE80E247FC8DE2B70190E071CFB70179
:1034E00080E390E00E948F1A9A946CCF8FEF9FEF49
:1034F00099CFFC010590615070400110D8F780957C
:1035000090958E0F9F1F0895FC01615070400190AF
:103510000110D8F7809590958E0F9F1F08950F93F7
:103520001F93CF93DF93182F092FEB018B8181FD20
:1035300009C01FEF0FEF812F902FDF91CF911F91C7
:103540000F91089582FF14C02E813F818C819D814F
:10355000281739073CF4E881F981CF010196998356
:10356000888310838E819F8101969F838E83E3CF12
:10357000E885F985812F0995892BA1F3DACFFA0126
:10358000AA27283051F1203181F1E8946F936E7FA2
:103590006E5F7F4F8F4F9F4FAF4FB1E03ED0B4E093
:1035A0003CD0670F781F891F9A1FA11D680F791FD4
:1035B0008A1F911DA11D6A0F711D811D911DA11DE5
:1035C00020D009F468943F912AE0269F11243019F5
:1035D000305D3193DEF6CF010895462F4770405D90
:1035E0004193B3E00FD0C9F7F6CF462F4F70405D3F
:1035F0004A3318F0495D31FD4052419302D0A9F79A
:10360000EACFB4E0A6959795879577956795BA9593
:10361000C9F700976105710508959B01AC010A2E59
:1036200006945795479537952795BA95C9F7620F30
:10363000731F841F951FA01D08952F923F924F92D4
:103640005F926F927F928F929F92AF92BF92CF9232
:10365000DF92EF92FF920F931F93CF93DF93CDB73B
:10366000DEB7CA1BDB0B0FB6F894DEBF0FBECDBFB3
:1036700009942A88398848885F846E847D848C8484
:103680009B84AA84B984C884DF80EE80FD800C818D
:103690001B81AA81B981CE0FD11D0FB6F894DEBF70
:1036A0000FBECDBFED010895F894FFCF0101701753
:1036B000FA00A00F881301010000AE038000000390
:1036C00006080AE409D809CDCCCC3D0C006801C736
:1036D00009BB09CDCCCC3D0C006801AA099E09CDDF
:1036E000CCCC3D0C0068018D098109CDCCCC3D0CC2
:1036F000006801700967099A99993D0900680156A7
:10370000090E099A99193F48006801FD08C108008F
:1037100000003F3C006801B00869089A99193F48C9
:1037200000680158085008029A883D080068013F67
:10373000083708029A883D08006801260836070005
:1037400000803FF000D002250735060000803FF0E2
:1037500000D0022406DC059A99193F48006801CB85
:10376000059B050000003F300068018A057A05A925
:1037700087083E10006801690545059A99193E249D
:1037800000D0023405A4049A99193F9000D0029306
:10379000044304E3AA2A3F5000680132040204CD26
:1037A000CCCC3E30006801F103A9039A99193F4837
:1037B000006801980350039A99193F480068013F37
:1037C00003AF029A99193F9000D0029E020E029A0E
:1037D00099193F9000D002FD01AD013BAAAA3E50CD
:1037E00000D0029C016C01CDCC4C3E3000D0025B7D
:1037F000011B01F888883E4000D0020A01C2009AED
:1038000099193F4800680100000000E4054E057B5F
:10381000053106AC058A059E0500000000030B4E2D
:1038200005F406F3060D0A00535750202535642091
:103830002025356400464958202025356420525003
:103840004D202000504F5420202535642052504DEB
:103850002020002020202020202020202020202088
:10386000202020002C0020417264752D5374696D56
:08387000204C4344202000001D
:107E0000112484B714BE81FFF0D085E080938100F7
:107E100082E08093C00088E18093C10086E0809377
:107E2000C20080E18093C4008EE0C9D0259A86E02C
:107E300020E33CEF91E0309385002093840096BBD3
:107E4000B09BFECF1D9AA8958150A9F7CC24DD24C4
:107E500088248394B5E0AB2EA1E19A2EF3E0BF2EE7
:107E6000A2D0813461F49FD0082FAFD0023811F036
:107E7000013811F484E001C083E08DD089C08234E0
:107E800011F484E103C0853419F485E0A6D080C0E4
:107E9000853579F488D0E82EFF2485D0082F10E0AE
:107EA000102F00270E291F29000F111F8ED06801E7
:107EB0006FC0863521F484E090D080E0DECF843638
:107EC00009F040C070D06FD0082F6DD080E0C81688
:107ED00080E7D80618F4F601B7BEE895C0E0D1E017
:107EE00062D089930C17E1F7F0E0CF16F0E7DF06D8
:107EF00018F0F601B7BEE89568D007B600FCFDCFD4
:107F0000A601A0E0B1E02C9130E011968C91119780
:107F100090E0982F8827822B932B1296FA010C0160
:107F200087BEE89511244E5F5F4FF1E0A038BF0790
:107F300051F7F601A7BEE89507B600FCFDCF97BE46
:107F4000E89526C08437B1F42ED02DD0F82E2BD052
:107F50003CD0F601EF2C8F010F5F1F4F84911BD097
:107F6000EA94F801C1F70894C11CD11CFA94CF0C13
:107F7000D11C0EC0853739F428D08EE10CD085E9AC
:107F80000AD08FE07ACF813511F488E018D01DD067
:107F900080E101D065CF982F8091C00085FFFCCF94
:107FA0009093C60008958091C00087FFFCCF809118
:107FB000C00084FD01C0A8958091C6000895E0E648
:107FC000F0E098E1908380830895EDDF803219F02E
:107FD00088E0F5DFFFCF84E1DECF1F93182FE3DFCA
:107FE0001150E9F7F2DF1F91089580E0E8DFEE27F6
:047FF000FF270994CA
:027FFE00040479
:00000001FF
