:100000000C9489050C94B1050C94B1050C94B105C0
:100010000C94B1050C94B1050C94B1050C94D10F5E
:100020000C94B1050C94B1050C94B1050C94090F16
:100030000C94B1050C94B1050C94B1050C94B10568
:100040000C94BF0E0C94B1050C948D0E0C94670E9D
:100050000C94B1050C946E110C94B1050C94B1057F
:100060000C94B1050C94B10508000000BE9224491F
:10007000123EABAAAA2ABECDCCCC4C3E00000080DA
:10008000BEABAAAAAA3E00000000BF000000803F4D
:100090000000000000084178D3BB4387D1133D190D
:1000A0000E3CC3BD4282AD2B3E68EC8276BED98F3A
:1000B000E1A93E4C80EFFFBE01C4FF7F3F0000007E
:1000C000000001010101010102020202000003031C
:1000D000030303030202000000000101010101010A
:1000E000000000000000010101010101000000000A
:1000F00000000101010101010000000000000101F8
:100100000101010100000000000053757A756B6960
:100110002044525A343030202020000000000100DA
:1001200000000100000001000000010000000100CB
:1001300000000100000001000000010002020302B3
:1001400000000100000001000000010000000100AB
:10015000000001000000010000000159616D6168AC
:10016000612052312030322D303320000001000157
:100170000001000100010003000100010001000175
:100180000001000100010001000100030001000363
:10019000000100010001000100010001486F6E64D0
:1001A00061205243353120772F63616D00010101D9
:1001B000010000000000000101010100000000003A
:1001C000000101010100000000000000000000002B
:1001D000000000000000000000000101010100001B
:1001E0000000000001010101000000000000010109
:1001F00001010000000000000000000000427565E1
:100200006C6C204F646466697265202020000100D8
:1002100001000100010001000100010001000100D6
:1002200003020300010001000100010001000100C0
:1002300001000100010001000100010001000100B6
:1002400001000100010001000100010001000100A6
:100250000100010000000100010001000100010097
:10026000010003020300010003020300010001007A
:100270000100010001000100010001000100010076
:100280000100010001000100010001000100010066
:1002900001000100010001000100010000004D61AA
:1002A0007A6461204645332033362D312020000109
:1002B0000000020000010000000000010001000138
:1002C0000001000100010001000100010001000126
:1002D0000001000100010001000100000200000116
:1002E0000001000100010001000100010001000106
:1002F00000010001000100010000000000010000F9
:1003000000000001000102010001000100010001E4
:1003100000010001000100010001000100010001D5
:1003200000010000000000010001000100010001C7
:100330000001000100010001000100010001003383
:10034000362D322D322D322043264320202020000E
:100350000100010001000100010001000100010095
:100360000100010001000100010001000100010085
:100370000100010001000000000001000100010077
:100380000100010001000100010001000100000066
:10039000000001000000000033362D322D322D32D6
:1003A000204836206F2F432000010001000100018A
:1003B0000001000100010001000100010001000135
:1003C0000001000000000001000000000001000129
:1003D0000001000100010001000100010001000115
:1003E0000001000100010000000000010001000107
:1003F0000033362D322D322D32204834206F2F43DA
:1004000020000100000001000000010000000100C8
:1004100000000100000001000000010000000100D8
:1004200000000100000000000000000000000000CB
:10043000000031322D33206F646462616C6C2020C7
:100440002020000001000100010001000100010066
:100450000100010001000100010001000100010094
:100460000100010001000100010001000100010084
:100470000100010001000100010001000100010074
:100480000100010001000100010001000100010064
:1004900001000034302D312028466F72642056311F
:1004A00030292000000000000001000000000001D1
:1004B000000000000001000000000001000000003A
:1004C0000001000000000001000000000001000029
:1004D0000000000100000000000100000000000119
:1004E000000000000001000000000000000000000B
:1004F00000010000000000010000000000010000F9
:1005000000000001000000000001000000000001E8
:1005100000000000000100000000000100000000D9
:1005200000010202020202010000000000010000BE
:100530000000000031322D31206372616E6B202685
:100540002063616D00000001000001000001000057
:100550000100000100000000000100000102020192
:10056000000001000001000000362D31206372619F
:100570006E6B20262063616D2000000100010001E8
:1005800000010001000100010000382D31206372DC
:10059000616E6B20285236292020000100010001E5
:1005A0000001000100010001000100010001000143
:1005B0000001000100010001000100010001000133
:1005C000000100010001000100000032342D312043
:1005D0006372616E6B206F6E6C7920000100010008
:1005E0000100010001000100010001000100010003
:1005F00001000100010001000100010001000100F3
:1006000001000100010001000100010001000100E2
:1006100001000100010001000100010001000100D2
:100620000100000033362D31206372616E6B206F44
:100630006E6C792000010001000100010001000141
:1006400000010001000100010001000100010001A2
:100650000001000100010001000100010001000192
:100660000001000100010001000100010001000182
:100670000001000100010001000100010001000172
:100680000001000100010001000100030203020358
:100690000203020302030203020302030203020332
:1006A0000203020302030203020202020203020324
:1006B0000203020302030203020302030203020312
:1006C0000203020302030203020302030203020302
:1006D00002030203020302030203020302030203F2
:1006E00002030203020302030203020302030203E2
:1006F00002030203020302030203020302030203D2
:1007000002030201000100010001000100010001DB
:1007100000010001000100010001000100010001D1
:10072000000000000036302D3220262068616C6603
:10073000206D6F6F6E0001000100010001000100DB
:1007400001000100010001000100010001000100A1
:100750000100010001000100010001000100010091
:100760000100010001000100010001000100010081
:100770000100010001000100010001000100010071
:100780000100010001000100010001000100010061
:100790000100010001000100010001000100010051
:1007A0000100010001000100010000000000010043
:1007B0000100010001000100010001000100010031
:1007C0000100010001000100010001000100010021
:1007D0000100010001000100010001000100010011
:1007E0000100010001000100010001000100010001
:1007F00001000100010201000100010001000100EF
:1008000001000100010001000100010001000100E0
:1008100001000100010001000100010001000100D0
:1008200001000000000036302D32206372616E6BD3
:1008300020262063616D000100010001000100011C
:1008400000010001000100010001000100010001A0
:100850000001000100010001000100010001000190
:100860000001000100010001000100010001000180
:100870000001000100010001000100010001000170
:100880000001000100010001000100010001000160
:10089000000000000000002020447563617469209E
:1008A00034382D3320202000010100000001010117
:1008B0000101010101010000000000000000000032
:1008C0000000000000000000000000000000000028
:1008D0000000000000000000000000000000000018
:1008E0000000000000000000000000000000000008
:1008F0002020486F6E64612043472031353020202E
:100900000002030303010303032020424D5720622A
:100910006F78657220282D29200001000000020058
:1009200000002020424D5720626F78657220282BEE
:100930002920000101010101010000000000010166
:1009400000000000000000000000010100000000A5
:100950000000000000000101000000000000000095
:100960000000010100000000000000000000010183
:1009700000000000000000000000202053757A7580
:100980006B692042616E6469742000010000000000
:100990000000000000000000000001000000000056
:1009A0000000000000000000000100000000000046
:1009B000000000000000000001010101010101012F
:1009C000010000000000004B61776173616B6920DA
:1009D0005A58522D3235300001010000000101014A
:1009E00001010101010101010000000000000000FF
:1009F00000000000000000000000000000000000F7
:100A000000010101010101010101010100000000DB
:100A100000000000000000000000000000000000D6
:100A20004B61776173616B69205A582D3620202005
:100A30000001000000020000000053696D706C6549
:100A40002034306465672031383000010100000037
:100A50000002020000000059616D616861203630BB
:100A60002032636820202000010002000000000006
:100A700000000000486F6E646120323520326368E8
:100A800020363020000100000200000000000000BD
:100A900000486F6E6461203235203263682039303F
:100AA0002000010000000000020000000000486F6C
:100AB0006E646120323520326368203138300000A6
:100AC000000000240027002A000000000025002864
:100AD000002B0004040404040404040202020202C1
:100AE00002030303030303010204081020408001F2
:100AF0000204081020010204081020000000080071
:100B000002010000030407000000000000000000D4
:100B1000A91111241FBECFEFD8E0DEBFCDBF12E078
:100B2000A0E0B1E0E6E7F7E302C005900D92A43E35
:100B3000B107D9F723E0A4EEB2E001C01D92A63CB4
:100B4000B207E1F715E0C9E8D5E004C02197FE013E
:100B50000E94DB18C838D107C9F70E94F3110C9422
:100B6000B91B0C940000AF92BF92CF92DF92EF922C
:100B7000FF920F931F93CF93DF936C017B018B0147
:100B8000040F151FEB015E01AE18BF08C017D10797
:100B900059F06991D601ED91FC910190F081E02D21
:100BA000C6010995892B79F7C501DF91CF911F9176
:100BB0000F91FF90EF90DF90CF90BF90AF9008958E
:100BC000FC01538D448D252F30E0842F90E0821B53
:100BD000930B541710F0CF96089501970895FC01D8
:100BE000918D828D981761F0A28DAE0FBF2FB11D30
:100BF0005D968C91928D9F5F9F73928F90E0089588
:100C00008FEF9FEF0895FC01918D828D981731F041
:100C1000828DE80FF11D858D90E008958FEF9FEF95
:100C20000895FC01918D228D892F90E0805C9F4F6B
:100C3000821B91098F73992708958DE093E00E949C
:100C4000110621E0892B09F420E0822F0895FC0190
:100C5000A48DA80FB92FB11DA35ABF4F2C91848D1D
:100C600090E001968F739927848FA689B7892C937A
:100C7000A089B1898C91837080648C93938D848DCD
:100C8000981306C00288F389E02D80818F7D8083D0
:100C90000895EF92FF920F931F93CF93DF93EC0190
:100CA00081E0888F9B8D8C8D98131AC0E889F98913
:100CB000808185FF15C09FB7F894EE89FF89608316
:100CC000E889F98980818370806480839FBF81E097
:100CD00090E0DF91CF911F910F91FF90EF900895D9
:100CE000F62E0B8D10E00F5F1F4F0F731127E02EB4
:100CF0008C8D8E110CC00FB607FCFACFE889F989EC
:100D0000808185FFF5CFCE010E942706F1CFEB8DC4
:100D1000EC0FFD2FF11DE35AFF4FF0829FB7F894BF
:100D20000B8FEA89FB8980818062CFCFCF93DF93DD
:100D3000EC01888D8823B9F0AA89BB89E889F989F3
:100D40008C9185FD03C0808186FD0DC00FB607FC28
:100D5000F7CF8C9185FFF2CF808185FFEDCFCE015B
:100D60000E942706E9CFDF91CF91089590E0FC0122
:100D7000E550F54F2491FC01E951F54F3491FC0108
:100D8000ED52F54FE491EE23C9F0222339F02330E0
:100D900001F1A8F4213019F1223029F1F0E0EE0F31
:100DA000FF1FE753F54FA591B4918FB7F894EC91DD
:100DB000611126C030953E233C938FBF08952730A4
:100DC000A9F02830C9F0243049F7809180008F7D48
:100DD00003C0809180008F7780938000DFCF84B53F
:100DE0008F7784BDDBCF84B58F7DFBCF8091B00042
:100DF0008F778093B000D2CF8091B0008F7DF9CFF4
:100E00003E2BDACFCF93DF9390E0FC01E951F54F11
:100E100024918D52954FFC0184918823D1F090E06C
:100E2000880F991FFC01E154F54FA591B491FC0185
:100E3000E753F54FC591D49161110EC09FB7F89457
:100E40008C91E22FE0958E238C932881E223E88316
:100E50009FBFDF91CF9108958FB7F894EC91E22B6B
:100E6000EC938FBFF6CF3FB7F8948091EC0290914E
:100E7000ED02A091EE02B091EF0226B5A89B05C04D
:100E80002F3F19F00196A11DB11D3FBFBA2FA92F09
:100E9000982F8827BC01CD01620F711D811D911D06
:100EA00042E0660F771F881F991F4A95D1F7089572
:100EB000089590E080E00895CF92DF92EF92FF9244
:100EC0000F931F93CF93DF938C01DB01EC91E150E3
:100ED00020E0E53020F4F0E0EE5EFE4F2081C0918E
:100EE0000B0360E072E18AE790E004C09595879576
:100EF000779567952A95D2F70E942A176B017C0196
:100F0000BCE0CB9FE0011124C95EDE4FF801608197
:100F1000718190E080E00E9428172C813D814E81F4
:100F20005F810E9447189B01AC01C701B6010E9476
:100F300087160E94F916CB01DF91CF911F910F9177
:100F4000FF90EF90DF90CF900895CF93DF93382FED
:100F5000C0910B038CE0C89FE0011124C95EDE4FF5
:100F6000832F6A3071058105910520F46AE070E0F5
:100F700080E090E00E9428172C813D814E815F81A6
:100F80000E9447189B01AC0160E074E284EF9AE490
:100F90000E9487160E94F91661157105810521E0EE
:100FA000920738F56115710520E48207910520F557
:100FB0006115710528E08207910508F56115710535
:100FC00021E082079105F0F430E021E004C096951D
:100FD0008795779567953A95D2F770930901609355
:100FE00008012093EA0281E08093E902DF91CF912A
:100FF00008953AE025E0EACF38E024E0E7CF36E094
:1010000023E0E4CF33E022E0E1CFCF92DF92EF9212
:10101000FF926B017C0180910C03882329F085E00D
:101020008A95F1F70000F7CF81E080930C0380915F
:10103000090390910A03009711F00E942C15C70133
:10104000B6010E94A507D0920301C092020110923E
:101050000C03FF90EF90DF90CF9008954F925F9236
:101060006F927F928F929F92AF92BF92CF92DF92B8
:10107000EF92FF920F931F93CF93DF9300D000D096
:10108000CDB7DEB780910C03882329F025E02A959F
:10109000F1F70000F7CF81E080930C036091040129
:1010A0007091050190E080E00E9428172B013C011F
:1010B000E0910B038CE08E9FF0011124E95EFE4F5E
:1010C0002481358146815781C301B2010E944718AE
:1010D0009B01AC0160E074E284EF9AE40E94871601
:1010E0000E94F9166B017C01609106017091070165
:1010F00090E080E00E9428174B015C01E0910B0317
:101100009CE09E9FF0011124E95EFE4F2481358111
:1011100046815781C501B4010E9447189B01AC016B
:1011200060E074E284EF9AE40E9487160E94F91648
:1011300069837A838B839C83A3019201C501B401E7
:101140000E9487160E94FF172BE930E24AE95EE30E
:101150000E9487160E9470160E94F916962E8091A2
:10116000090390910A03009711F00E942C15EBE0FF
:101170009E9EC00111240E9490145C0190E00BE03F
:10118000A1E0B2E015E0991508F064C0F501909F68
:10119000E00DF11D1124C114D104E10421E0F20697
:1011A00070F114838AE0282F30E0B701A601082EE1
:1011B00004C076956795579547950A94D2F7518361
:1011C0004083B701A6017695679557954795498065
:1011D0005A806B807C80441555056605770580F53F
:1011E0007301620104C0F694E794D794C7948A957A
:1011F000D2F7D382C2829E5F6A017B01C4CFC11441
:10120000D10480E4E806F10428F084E0482E44820A
:1012100088E0C9CFC114D10428E0E206F10420F02F
:1012200083E0848386E0BFCFC114D10421E0E206CD
:10123000F10418F0B48383E0B6CFA48380E0B3CF89
:101240002F5F3F4F04C0F694E794D794C7942A9534
:10125000D2F7CFCFB0920A03A0920903F12C8BE012
:10126000E82EF91408F0A6C0FE9C30011124830179
:101270000A0D1B1DC3010B968A0D9B1D9A83898342
:10128000F8018481E981FA818483F8018281938164
:10129000E981FA8193838283F801C280D3806081DF
:1012A00071816C197D0990E080E00E9428172CE57F
:1012B0003FE842EC5EE30E9447182B013C01B60177
:1012C00090E080E00E9428179B01AC01C301B201AD
:1012D0000E9404160E94F916F80173836283E98163
:1012E000FA81718360831A830983812C09811A81B1
:1012F0000C5F1F4FB80189819A810E945C076C01C5
:10130000B80189819A8102960E945C078C01E9816B
:10131000FA816081718182819381681B790B90E0F1
:1013200080E00E9428172B013C010C191D09B8010F
:1013300090E080E00E94281720E030E04AE754E483
:101340000E9447180E94F91690E080E00E9428173A
:101350009B01AC01C301B2010E9487162B013C0125
:101360000E94F916E981FA817287618790E080E036
:101370000E9428179B01AC01C301B2010E94031611
:1013800020E034E244E759E40E9447180E94F9162D
:10139000E981FA8165837683878390873B96FA8318
:1013A000E983F1E08F1203C0F394F3945ACF8824B9
:1013B00083949CCF909208031092070381E080935E
:1013C0000B0180930A0180910703F5012BE0829FB6
:1013D000E00DF11D1124808191819093090180938A
:1013E0000801109203031092040310920503109257
:1013F00006031092020310920C030F900F900F90AF
:101400000F90DF91CF911F910F91FF90EF90DF90A0
:10141000CF90BF90AF909F908F907F906F905F9094
:101420004F90089580910203882369F06091020132
:101430007091030190E080E00E94A5071092F602EF
:101440001092F50208950E942E08F8CFCF93DF93F3
:10145000EC0160E08E810E94B60661E08E810E9400
:10146000B60660E08E810E94B6068BE891E0019797
:10147000F1F7DF91CF910895CF92DF92EF92FF9233
:101480000F931F93CF93DF936C017C0187E0E80EED
:10149000F11CD0E0C0E0062F10E0B8010C2E02C015
:1014A000759567950A94E2F76170F70181917F0164
:1014B0000E94B6062196C430D10579F7C601DF91A6
:1014C000CF911F910F91FF90EF90DF90CF900C94F0
:1014D000260ACF92DF92EF92FF920F931F93CF9342
:1014E000DF93EC01F62E642F8C810E94B6068D816D
:1014F0008F3F19F060E00E94B6060F2D10E08F8537
:1015000084FF25C06E0187E0C80ED11CF12CE12CB0
:10151000B8010E2C02C0759567950A94E2F76170C8
:10152000F60181916F010E94B606FFEFEF1AFF0AE4
:1015300088E0E816F10461F7CE01DF91CF911F91A9
:101540000F91FF90EF90DF90CF900C94260AB80196
:1015500084E0759567958A95E1F7CE010E943C0A73
:101560006F2DCE01DF91CF911F910F91FF90EF90E2
:10157000DF90CF900C943C0A40E0682F8AEA93E019
:101580000C94690ACF93DF93823029F49091B903C8
:1015900098609093B9038093BD031092BE0380E4DA
:1015A0008093BF0380E18093C00380E58093C103F3
:1015B00061E08091AE030E9402078091AF038F3FEC
:1015C00019F061E00E94020761E08091B0030E947F
:1015D0000207CAEAD3E09E012A5A33408091B90338
:1015E00084FD0BC084E090E021962817390744F46D
:1015F00061E08E810E940207EECF88E090E0F4CF98
:101600008BE39DE00197F1F760E08091AE030E94CB
:10161000B60660E08091B0030E94B6068091AF03E9
:101620008F3F19F060E00E94B6068091B90384FDF7
:1016300039C063E08AEA93E00E943C0ACBE4D6E436
:10164000CE010197F1F763E08AEA93E00E943C0A39
:101650002197F1F763E08AEA93E00E943C0A83E570
:1016600092E00197F1F762E08AEA93E00E943C0A77
:101670008091B90380620E94BC0A84E08093BA031F
:101680008CE00E94BC0A81E00E94BC0A8BE39FE1CF
:101690000197F1F782E08093BB0386E0DF91CF9161
:1016A0000C94BC0A80620E94BC0A8BE496E4019709
:1016B000F1F78091B90380620E94BC0A83E592E051
:1016C0000197F1F78091B90380620E94BC0AD0CFE4
:1016D00041E00E94690A81E090E00895FB010190D9
:1016E0000020E9F73197AF01461B570BDC01ED9164
:1016F000FC910280F381E02D09948F929F92AF922A
:10170000BF920F931F93CF93DF93CDB7DEB7A1970F
:101710000FB6F894DEBF0FBECDBF19A2423008F459
:101720004AE08E010F5D1F4F842E912CB12CA12C0D
:10173000A50194010E94E115E62FB901CA01EA3022
:1017400004F5E05DD801EE938D01232B242B252B8E
:1017500079F790E080E0109729F0BD018DE093E0EB
:101760000E946E0BA1960FB6F894DEBF0FBECDBFE0
:10177000DF91CF911F910F91BF90AF909F908F906D
:101780000895E95CDFCFCF93DF93BC0190E080E068
:101790004AE00E947D0BEC0161E972E08DE093E08C
:1017A0000E946E0B8C0F9D1FDF91CF910895CF93F8
:1017B000DF93BC018DE093E00E946E0BEC0161E9C8
:1017C00072E08DE093E00E946E0B8C0F9D1FDF9105
:1017D000CF9108950F931F93CF93DF93CDB7DEB7CB
:1017E00060970FB6F894DEBF0FBECDBF80910203A5
:1017F0008E010F5F1F4F8130D9F100F1823009F463
:101800004CC0E091BD03E23008F050C0E150F0E080
:10181000E655FC4F848980680E94BC0AB8018AEAB8
:1018200093E00E946E0B60960FB6F894DEBF0FBE79
:10183000CDBFDF91CF911F910F9108958091070146
:101840008F93809106018F93809105018F938091F2
:1018500004018F9384E992E09F938F931F930F93DA
:101860000E94E1180FB6F894DEBF0FBECDBFC9CFFE
:10187000809103018F93809102018F9381EA92E01E
:101880009F938F931F930F930E94E1180F900F90D7
:101890000F900F900F900F90B4CF809103018F9312
:1018A000809102018F9380EB92E0EACFE1E0AFCF2D
:1018B000CF93DF93CDB7DEB760970FB6F894DEBF56
:1018C0000FBECDBFE0910B038CE0E89FF001112427
:1018D000E95EFE4F6081718140E150E0CE010196EA
:1018E0000E94BC15E1E08091BD038111E0E0E1952B
:1018F000F0E0E655FC4F848980680E94BC0A6FEBDB
:1019000072E08AEA93E00E946E0BE1E08091BD03F1
:101910008111E0E0E195F0E0E655FC4F84898068B4
:101920000E94BC0ABE016F5F7F4F8AEA93E00E946B
:101930006E0B60960FB6F894DEBF0FBECDBFDF9181
:10194000CF9108950C94CB15FF920F931F93CF93D3
:10195000DF93EC01F62E08811981C8010E94CB1596
:10196000F81621F06F2DC8010E94D315CE01DF912A
:10197000CF911F910F91FF900895EF92FF920F93D7
:101980001F93CF93DF93CDB7DEB7C055D1090FB604
:10199000F894DEBF0FBECDBF8091F002811106C06A
:1019A0008DE093E00E94EF058093E8028091E802C9
:1019B000833509F452C138F58E3409F4C1C0C8F436
:1019C0008C3409F495C08D3409F4A9C01092F0024A
:1019D00081E08093F702C05BDF4F0FB6F894DEBF63
:1019E0000FBECDBFDF91CF911F910F91FF90EF9070
:1019F0000895803509F4B8C0823541F7809102011D
:101A000090910301AEC0863609F450C0C0F5883508
:101A100009F436C18336D1F660910B0382E090E081
:101A20009A838983CE0101960E94A40C60910203DF
:101A300083E090E09A838983CE0101960E94A40CF2
:101A400081E090E09A83898361E0CE0101960E9453
:101A5000A40C109102016091030184E090E09A834C
:101A60008983CE0101960E94A40C85E090E09A83C0
:101A70008983612FCE0101960E94A40CA7CF8037E5
:101A800009F465C0833709F4B9C08E3609F09ECFDA
:101A90004AE06DE170E080E090E00E947D0B61E93A
:101AA00072E08DE093E00E946E0B90CF81E0809316
:101AB00002038DE093E00E9411060297D4F38DE0BB
:101AC00093E00E94EF05182F8DE093E00E94EF0550
:101AD00060E0782F612B70930301609302016A30FC
:101AE000710508F473CF90E080E00E9405086ECF86
:101AF00007E111E083E7E82E82E0F82EF80160812B
:101B00007181CE0101960E94B515CE0101960E9409
:101B1000D70B045F1F4FE016F10681F757CF8DE01A
:101B200093E00E94110618161906CCF78DE093E099
:101B30000E94EF05833008F049CF8093020346CF1F
:101B400060910B0370E090E080E04AE0A6CFE09166
:101B50000B038CE0E89FF0011124E95EFE4F8085C5
:101B600091850E94C30B32CFE0910B038CE0E89F7C
:101B7000F0011124E95EFE4F0084F185E02D85918E
:101B80009491F12CE12C1CE0E0910B031E9FF001DD
:101B90001124E95EFE4F80859185E816F90600F56F
:101BA000E114F10431F060ED72E08DE093E00E9409
:101BB0006E0BE0910B031E9FF0011124E95EFE4FB6
:101BC0000280F381E02DEE0DFF1D649170E090E046
:101BD00080E04AE00E947D0BEFEFEE1AFE0AD4CFC0
:101BE00083E992E00E94D70BE0910B031E9FF00166
:101BF0001124E95EFE4F82859385B3CF10920203D4
:101C00008DE093E00E9411060497D4F38DE093E0F9
:101C10000E94EF05182F8DE093E00E94EF0520E071
:101C2000382F212B30930501209304018DE093E0A0
:101C30000E94EF058DE093E00E94EF0584E690E0BE
:101C4000909305018093040180EA9FE0909307013F
:101C5000809306010E942E08B9CE8DE093E00E9489
:101C6000110618161906CCF78DE093E00E94EF05D7
:101C70008D3108F0ABCE80930B030E94120AA6CEE2
:101C800080910B038C31B9F410920B030E94120A5D
:101C9000E0910B038CE0E89FF0011124E95EFE4F18
:101CA00060817181CE0101960E94B515CE01019629
:101CB0000E94D70B8BCE80910B038F5F80930B0319
:101CC000E5CF0E941D0681110C94BD0C08951F9252
:101CD0000F920FB60F9211242F933F934F935F9360
:101CE0006F937F938F939F93AF93BF93EF93FF93E4
:101CF0008DE093E00E942706FF91EF91BF91AF9195
:101D00009F918F917F916F915F914F913F912F9113
:101D10000F900FBE0F901F9018951F920F920FB645
:101D20000F9211242F938F939F93EF93FF93E09142
:101D30001D03F0911E038081E0912303F0912403A1
:101D400082FD1BC09081809126038F5F8F7320914D
:101D50002703821741F0E0912603F0E0E35FFC4F98
:101D6000958F80932603FF91EF919F918F912F91F3
:101D70000F900FBE0F901F9018958081F4CF1F9287
:101D80000F920FB60F9211242F933F938F939F932F
:101D9000AF93BF938091F1029091F202A091F30270
:101DA000B091F4023091EB0223E0230F2D3758F568
:101DB0000196A11DB11D2093EB028093F102909337
:101DC000F202A093F302B093F4028091EC0290919E
:101DD000ED02A091EE02B091EF020196A11DB11D9E
:101DE0008093EC029093ED02A093EE02B093EF0289
:101DF000BF91AF919F918F913F912F910F900FBE07
:101E00000F901F90189526E8230F0296A11DB11D73
:101E1000D2CF1F920F920FB60F9211242F933F93A0
:101E20004F935F936F937F938F939F93AF93BF93E2
:101E3000EF93FF93A0910B038091F5029091F6022E
:101E40002CE0A29FD0011124A95EBE4F1296ED9105
:101E5000FC91E80FF91F8491E091E702E827E13057
:101E600009F467C008F454C0E23009F468C0E330F4
:101E700009F473C080910001882309F474C0809133
:101E8000F5029091F60201969093F6028093F50286
:101E9000E0910B038091F5029091F6022CE0E29F15
:101EA000F0011124E95EFE4F20853185281739079E
:101EB00021F41092F6021092F5028091E902882333
:101EC00071F080918100887F809381009091EA0277
:101ED00080918100892B809381001092E90280918A
:101EE0000801909109019093890080938800FF91E7
:101EF000EF91BF91AF919F918F917F916F915F9182
:101F00004F913F912F910F900FBE0F901F901895FA
:101F100060E08CE00E94B60661E08DE00E94B606AB
:101F200060E082E00E94B60661E083E00E94B606AF
:101F3000A1CF61E08CE00E94B60660E0EECF60E0E9
:101F40008CE00E94B60661E08DE00E94B60661E07A
:101F500082E00E94B60660E0E8CF61E08CE00E947B
:101F6000B60660E0F1CF8091F5029091F602892BE0
:101F700071F4E0910B038CE0E89FF0011124E95E1D
:101F8000FE4F808591859093F6028093F5028091B3
:101F9000F5029091F60201979093F6028093F50274
:101FA0008CCF1F920F920FB60F9211240F931F9395
:101FB0002F933F934F935F936F937F938F939F9351
:101FC000EF93FF93809102038111E5C080910C0390
:101FD0008111E1C021E020930C0330910A0180912E
:101FE000090390910A03332399F010920A01209378
:101FF000E90220910703FC013BE0239FE00DF11D66
:10200000112424812093EA022091EA022093E6021F
:1020100020910B01213009F0CFC02091070340919E
:102020000303509104036091050370910603FC01C2
:102030003BE0239FE00DF11D1124058116812781CE
:102040003085400F511F621F731F4093030350934D
:1020500004036093050370930603409103035091BA
:1020600004036091050370910603413452446F40AC
:10207000710590F02091E5022F5F2093E5024091D9
:1020800003035091040360910503709106034054CB
:1020900052446F407109D9CF309107034091080134
:1020A000509109012BE0FC01329FE00DF11D11243C
:1020B000628173813091070364177507C0F46091E2
:1020C000E5024091080150910901461B5109329FD8
:1020D000800D911D1124FC0181859285481B590BAF
:1020E00050930901409308011092E50252C03F5FEE
:1020F0003093070310920303109204031092050318
:102100001092060340910703309108034317E8F447
:1021100030910703FC01329FE00DF11D1124408135
:102120005181509309014093080140910703309178
:10213000E602429F800D911D1124FC0184818317CA
:1021400041F181E080930A0124C0309107033150AE
:102150003093070310920B0130910703FC01329F6B
:10216000E00DF11D112442815381509309014093E8
:102170000801409107033091E602429F800D911DB6
:102180001124FC018481831719F081E080930A01F6
:102190005F9A10920C03FF91EF919F918F917F9125
:1021A0006F915F914F913F912F911F910F910F90E0
:1021B0000FBE0F901F9018952091070340910303C5
:1021C000509104036091050370910603FC013BE00C
:1021D000239FE00DF11D1124058116812781308593
:1021E000400F511F621F731F40930303509304035A
:1021F0006093050370930603409103035091040319
:102200006091050370910603413452446F4071059B
:1022100090F02091E5022F5F2093E50240910303A7
:102220005091040360910503709106034054524499
:102230006F407109D9CF2091070340910801509157
:1022400009013BE0FC01239FE00DF11D1124608199
:10225000718146175707C8F4609107032091E50282
:102260004091080150910901FC01639FE00DF11DAF
:102270001124240F352F311D81859285820F931FE4
:1022800090930901809308012FCF209107032150DB
:102290002093070310920303109204031092050386
:1022A000109206032091070320910703FC01239F4E
:1022B000E00DF11D11244281538150930901409397
:1022C0000801409107032091E602439F800D911D74
:1022D0001124FC018481821334CF5BCF1F920F92B3
:1022E0000FB60F9211242F938F939F9390917800A4
:1022F000809179008927982789272091E402222359
:1023000079F02130D1F080917A00806480937A0056
:102310009F918F912F910F900FBE0F901F90189546
:102320009093F9028093F80280E480937C0081E02E
:102330008093E4028093FA02E6CF909300038093A7
:10234000FF0281E480937C001092E4022093010359
:10235000DACFEDE0F3E01382128288EE93E0A0E0A2
:10236000B0E084839583A683B78387E792E0918367
:10237000808385EC90E09587848784EC90E0978754
:10238000868780EC90E0918B808B81EC90E0938B42
:10239000828B82EC90E0958B848B86EC90E0978B1F
:1023A000868B118E128E138E148EEAEAF3E013825E
:1023B000128289E892E09183808388E084838FEFA2
:1023C000858389E0868384E0878385E0808786E053
:1023D000818787E08287138614861586168617867E
:1023E00081E00C94C20A789484B5826084BD84B57F
:1023F000816084BD85B5826085BD85B5816085BD00
:1024000080916E00816080936E00109281008091B7
:10241000810082608093810080918100816080933F
:102420008100809180008160809380008091B10064
:1024300084608093B1008091B00081608093B0008F
:1024400080917A00846080937A0080917A00826023
:1024500080937A0080917A00816080937A008091E5
:102460007A00806880937A001092C100E0911D0389
:10247000F0911E03D2E0D083E0911903F0911A038A
:102480001082E0911B03F0911C0380E18083109285
:102490002503E0912103F091220386E08083E091FF
:1024A0001F03F0912003808180618083E0911F03EE
:1024B000F0912003808188608083E0911F03F09178
:1024C0002003808180688083E0911F03F0912003C6
:1024D00080818F7D80831092F00281E090E00E94E5
:1024E000A20C8F3F09F038C110920B0388EB9BE0E0
:1024F0009093030180930201D093020382E00E9433
:10250000C20A62ED72E08AEA93E00E946E0B0E94BA
:1025100033074B015C0130EDC32E37E0D32EE12CA5
:10252000F12C0E943307681979098A099B09683ED2
:10253000734081059105A8F381E0C81AD108E1082C
:10254000F10828EE820E23E0921EA11CB11CC114DA
:10255000D104E104F10429F70E94580C0E94EA0B0F
:10256000F8941092800010928100109285001092D1
:10257000840088EE93E09093890080938800809196
:1025800081008860809381008091810081608093C8
:10259000810080916F00826080936F001092B00084
:1025A0001092B1001092B20089EF8093B300809135
:1025B000B00082608093B0008091B100846080930D
:1025C000B1008091700082608093700080E48093FD
:1025D0007C0080917A00806880937A0080917A00F4
:1025E000806280937A0080917B00887F80937B005B
:1025F00080917A00876080937A0080917A00886069
:1026000080937A0061E088E00E94020761E089E03F
:102610000E94020760E08AE00E94020761E08CE00D
:102620000E94020761E08DE00E94020761E082E003
:102630000E94020761E083E00E9402077894809183
:102640007A00806480937A006091020170910301A6
:1026500090E080E00E94A50704E610E090EAE92EF1
:102660009FE0F92E24ECC22E29E0D22EDCE1BB241F
:10267000B394809102038230E9F4809101038823AE
:10268000C9F0109201036091FF027091000384E091
:10269000660F771F8A95E1F7613080E4780710F0C4
:1026A00060E070E4709303016093020190E080E0C9
:1026B0000E94A5072FB7F8948091F1029091F20241
:1026C000A091F302B091F4022FBF4091FB02509110
:1026D000FC026091FD027091FE023C014D01641A02
:1026E000750A860A970AB401A301483C51056105A1
:1026F000710550F18093FB029093FC02A093FD02C0
:10270000B093FE028091FA02882371F01092FA02CF
:102710008091F8029091F9028F3E22E0920708F42E
:102720004DC0B0920101C0E080910203823011F4EB
:102730000E94EA0B8091F702882331F00E94580C26
:102740000E94EA0B1092F7020E941D06882309F4EA
:1027500090CF0E94BD0C8DCF82E090E00E94A20C31
:1027600080930B0383E090E00E94A20C809302030D
:1027700084E090E00E94A20CD82F85E090E00E94B7
:10278000A20C9D2F909303018093020120910B03D3
:102790002D3110F010920B0320910203233018F01A
:1027A00021E02093020389399A4308F4A7CE80EAF6
:1027B0009FE09093030180930201A0CE853F21E02A
:1027C0009207D0F58D3221E09207C0F58739910547
:1027D000B8F583339105B0F5C297B1F5CC2309F470
:1027E000A3CF80910101882309F49ECFC235F1F176
:1027F0006CF5C43409F44FC0CC3409F095CF809106
:102800000203813009F090CF6091020170910301C1
:102810006536710508F488CF645671097093030119
:10282000609302016A30710520F090E080E00E9420
:1028300005080E94EA0B78CFC3E5D3CFCCE4D1CF13
:10284000C4E4CFCFC5E5CDCFC2E5CBCFC335F1F1E1
:10285000C53509F069CF1092F6021092F502809109
:102860000B038C3179F510920B031FC0809102038A
:10287000813009F059CF60910201709103016038F5
:102880008EE3780708F050CF6C597F4F70930301A7
:1028900060930201CACF1092F6021092F502809165
:1028A0000B03811109C0D0930B030E94120A1092EE
:1028B00001010E94580C38CF80910B038150809306
:1028C0000B03F3CF80910B038F5FF9CF809102034D
:1028D0008F5F8093020380910203833011F4109282
:1028E000020380910203813051F4D0920301C0921F
:1028F000020164EC79E080E090E00E94050880919C
:10290000020381110AC01093050100930401F092A3
:102910000701E09206010E942E081092010189CF62
:102920000F931F93CF93DF938230910510F482E0D1
:1029300090E0E091C403F091C50330E020E0B0E006
:10294000A0E0309799F42115310509F44AC0281BFD
:10295000390B24303105D8F58A819B8161157105C9
:1029600089F1FB0193838283FE0111C04081518173
:102970000281138148175907E0F04817590799F465
:10298000109761F012960C93129713961C9332963F
:10299000CF01DF91CF911F910F9108950093C40350
:1029A0001093C503F4CF2115310551F04217530799
:1029B00038F0A901DB019A01BD01DF01F801C1CFA7
:1029C000EF01F9CF9093C5038093C403CDCFFE01EF
:1029D000E20FF31F819391932250310939832883A9
:1029E000D7CF2091C2033091C303232B41F4209110
:1029F0000E0130910F013093C3032093C203209145
:102A00000C0130910D012115310541F42DB73EB770
:102A10004091100150911101241B350BE091C2032C
:102A2000F091C303E217F307A0F42E1B3F0B281706
:102A3000390778F0AC014E5F5F4F2417350748F037
:102A40004E0F5F1F5093C3034093C2038193919332
:102A50009FCFF0E0E0E09CCFCF93DF930097E9F0C9
:102A6000FC01329713821282A091C403B091C50376
:102A7000ED0130E020E01097A1F420813181820F38
:102A8000931F2091C2033091C3032817390709F01F
:102A900061C0F093C303E093C203DF91CF91089527
:102AA000EA01CE17DF07E8F54A815B819E014115F7
:102AB0005105B1F7E901FB83EA8349915991C40FAC
:102AC000D51FEC17FD0761F4808191810296840F78
:102AD000951FE90199838883828193819B838A83EF
:102AE000F0E0E0E012968D919C9113970097B9F574
:102AF0002D913C911197CD010296820F931F209149
:102B0000C2033091C3032817390739F6309751F5BE
:102B10001092C5031092C403B093C303A093C203E1
:102B2000BCCFD383C28340815181840F951FC817C6
:102B3000D90761F44E5F5F4F88819981480F591F13
:102B4000518340838A819B81938382832115310540
:102B500009F0B0CFF093C503E093C4039ECFFD010D
:102B6000DC01C0CF13821282D7CFFB01DC010590BC
:102B70000D920020E1F70895FB01DC014150504027
:102B800048F005900D920020C9F701C01D924150F8
:102B90005040E0F70895F999FECF92BD81BDF89AB3
:102BA000992780B50895262FF999FECF1FBA92BDB7
:102BB00081BD20BD0FB6F894FA9AF99A0FBE01961E
:102BC0000895A1E21A2EAA1BBB1BFD010DC0AA1F6E
:102BD000BB1FEE1FFF1FA217B307E407F50720F086
:102BE000A21BB30BE40BF50B661F771F881F991F01
:102BF0001A9469F760957095809590959B01AC014A
:102C0000BD01CF0108955058BB27AA270E941B166B
:102C10000C94A5170E94971738F00E949E1720F079
:102C200039F49F3F19F426F40C9494170EF4E095B0
:102C3000E7FB0C946517E92F0E94B61758F3BA17F3
:102C4000620773078407950720F079F4A6F50C94C2
:102C5000F0170EF4E0950B2EBA2FA02D0B01B90141
:102C600090010C01CA01A0011124FF27591B99F002
:102C7000593F50F4503E68F11A16F040A22F232F0E
:102C8000342F4427585FF3CF469537952795A7955E
:102C9000F0405395C9F77EF41F16BA0B620B730B05
:102CA000840BBAF09150A1F0FF0FBB1F661F771F76
:102CB000881FC2F70EC0BA0F621F731F841F48F42B
:102CC000879577956795B795F7959E3F08F0B0CFB4
:102CD0009395880F08F09927EE0F9795879508959B
:102CE0000E94D81790F09F3748F4911116F40C9475
:102CF000F11760E070E080E89FE3089526F01B166E
:102D0000611D711D811D0C946B170C9486170E9418
:102D10009B160C94A5170E949E1758F00E949717B7
:102D200040F029F45F3F29F00C94651751110C9481
:102D3000F1170C9494170E94B61768F39923B1F316
:102D4000552391F3951B550BBB27AA2762177307D1
:102D5000840738F09F5F5F4F220F331F441FAA1F65
:102D6000A9F335D00E2E3AF0E0E832D09150504021
:102D7000E695001CCAF72BD0FE2F29D0660F771FCF
:102D8000881FBB1F261737074807AB07B0E809F0B5
:102D9000BB0B802DBF01FF2793585F4F3AF09E3F3A
:102DA000510578F00C9465170C94F1175F3FE4F32C
:102DB000983ED4F3869577956795B795F7959F5F7D
:102DC000C9F7880F911D9695879597F90895E1E0C9
:102DD000660F771F881FBB1F621773078407BA0728
:102DE00020F0621B730B840BBA0BEE1F88F7E09583
:102DF00008950E94BE1788F09F5798F0B92F992721
:102E0000B751B0F0E1F0660F771F881F991F1AF0D5
:102E1000BA95C9F714C0B13091F00E94F017B1E033
:102E200008950C94F017672F782F8827B85F39F032
:102E3000B93FCCF3869577956795B395D9F73EF46E
:102E400090958095709561957F4F8F4F9F4F089516
:102E5000E89409C097FB3EF4909580957095619534
:102E60007F4F8F4F9F4F9923A9F0F92F96E9BB27EA
:102E70009395F695879577956795B795F111F8CF66
:102E8000FAF4BB0F11F460FF1BC06F5F7F4F8F4FD1
:102E90009F4F16C0882311F096E911C0772321F0C7
:102EA0009EE8872F762F05C0662371F096E8862F5F
:102EB00070E060E02AF09A95660F771F881FDAF7B6
:102EC000880F9695879597F9089597F99F6780E8F9
:102ED00070E060E00895882371F4772321F0985022
:102EE000872B762F07C0662311F499270DC09051C8
:102EF000862B70E060E02AF09A95660F771F881F96
:102F0000DAF7880F9695879597F908959F3F31F0E6
:102F1000915020F4879577956795B795880F911D07
:102F20009695879597F908959FEF80EC0895002472
:102F30000A941616170618060906089500240A941E
:102F400012161306140605060895092E0394000CA4
:102F500011F4882352F0BB0F40F4BF2B11F460FF33
:102F600004C06F5F7F4F8F4F9F4F089557FD90585C
:102F7000440F551F59F05F3F71F04795880F97FB3D
:102F8000991F61F09F3F79F08795089512161306F7
:102F90001406551FF2CF4695F1DF08C01616170626
:102FA0001806991FF1CF869571056105089408955B
:102FB0000E94BE17A0F0BEE7B91788F4BB279F3860
:102FC00060F41616B11D672F782F8827985FF7CF0A
:102FD000869577956795B11D93959639C8F30895B1
:102FE000E894BB2766277727CB0197F9089516F059
:102FF0000C9486170C94941768940C9465170E948F
:10300000BE17A8F39923C1F3AEF3DF93CF931F93B9
:103010000F93FF92C92FDD2788232AF02197660F8F
:10302000771F881FDAF720E030E040E85FEB9FE38E
:10303000883920F0803E38F021968F770E94041660
:10304000E8E6F0E004C00E940416E5E9F0E00E9422
:10305000B4188B01BE01EC01FB2E6F5771097595F9
:10306000771F880B990B0E942A1728E132E741E36A
:103070005FE30E945A18AF2D9801AE01FF900F91A7
:103080001F91CF91DF910E941B160C94A5170E94EF
:103090005A180C94A5170E94971738F00E949E1793
:1030A00020F0952311F00C9465170C9494171124BB
:1030B0000C94F1170E94B61770F3959FC1F3950F0A
:1030C00050E0551F629FF001729FBB27F00DB11DAC
:1030D000639FAA27F00DB11DAA1F649F6627B00D3C
:1030E000A11D661F829F2227B00DA11D621F739F25
:1030F000B00DA11D621F839FA00D611D221F749F33
:103100003327A00D611D231F849F600D211D822F79
:10311000762F6A2F11249F5750409AF0F1F08823A0
:103120004AF0EE0FFF1FBB1F661F771F881F9150CD
:103130005040A9F79E3F510580F00C9465170C9400
:10314000F1175F3FE4F3983ED4F386957795679542
:10315000B795F795E7959F5FC1F7FE2B880F911DF7
:103160009695879597F90895DF93CF931F930F93C3
:10317000FF92EF92DF927B018C01689406C0DA2EF9
:10318000EF010E945A18FE01E894A591259135910E
:1031900045915591A6F3EF010E941B16FE01970180
:1031A000A801DA9469F7DF90EF90FF900F911F91DB
:1031B000CF91DF910895EE0FFF1F0590F491E02D60
:1031C0000994AEE0B0E0E7EEF8E10C94901B0D89B5
:1031D0001E8986E08C831A8309838FEF9FE79E8385
:1031E0008D83AE01475E5F4F6F89788DCE0101966A
:1031F0000E9404192F813885020F131FF8011082D5
:103200002E96E4E00C94AC1BABE0B0E0EAE0F9E110
:103210000C94821B7C013B018A01FC0117821682FF
:10322000838181FFC8C1CE0101965C01F7019381C2
:10323000F30193FD859193FF81913F01882309F468
:1032400053C1853239F493FD859193FF81913F01FC
:10325000853229F4B70190E00E94F41AE7CF912C4F
:10326000212C312CFFE1F31538F08B3211F190F461
:10327000803209F1833229F137FC3CC020ED280F60
:103280002A3050F536FE20C08AE0989E200D112489
:10329000922E06C08D3291F0803371F7689430F829
:1032A000F30193FD859193FF81913F018111DACF65
:1032B00021C0689431F8689432F8F2CF689433F8FA
:1032C000EFCF689434F8ECCFEAE02E9E200D112465
:1032D000222E689435F8E4CF8E3229F436FC04C1EE
:1032E000689436F8DDCF8C3619F4689437F8D8CF67
:1032F0008836B1F2982F9F7D95549330E0F0833655
:10330000A1F18337C1F1833509F063C02801F2E0F0
:103310004F0E511CF801C080D180692D70E036FC41
:1033200002C06FEF7FEFC6010E94DE1A4C01689465
:1033300037F882010AC00C5F1F4FFFE3F98388242E
:103340008394912C6501E89437F833FE2DC0522CFC
:103350008114910471F5552009F468CFB70180E21A
:1033600090E00E94F41A5A94F6CFF8018081898384
:103370000E5F1F4FE4CF2801F2E04F0E511CF80101
:10338000C080D180692D70E036FC02C06FEF7FEF06
:10339000C6010E94E91A4C018201D5CFB70180E233
:1033A00090E00E94F41A2A942814190409F0B0F746
:1033B000CECFF60137FC859137FE81916F01B701C1
:1033C00090E00E94F41A51105A94F1E08F1A91087B
:1033D000BFCF843619F0893609F077C0F80137FE7F
:1033E0006BC060817181828193810C5F1F4FF32DCF
:1033F000FF763F2E97FF09C0909580957095619557
:103400007F4F8F4F9F4F689437F82AE030E0A50137
:103410000E94241BC82ECA188C2C432C36FE0CC0CC
:10342000E89440F8C91440F434FE05C032FC03C0EF
:10343000F32DFE7E4F2E892C44FE95C0FE01EC0D2F
:10344000F11D8081803309F087C0242D297E422E12
:10345000842D8870582E43FC95C040FE8FC09C2C54
:10346000821418F42C0C922C981844FE91C0B701C9
:1034700080E390E00E94F41A42FE09C088E790E0E1
:1034800041FE02C088E590E0B7010E94F41AC91419
:1034900008F48AC0CA94D12C9FEFC91AD90ACA0C61
:1034A000DB1CF60182916F01B70190E00E94F41AD3
:1034B000AC14BD04B1F74FCF60817181072E000CB1
:1034C000880B990B0E5F1F4F92CFD32CE894D4F842
:1034D0002AE030E0853739F1232D297FD22E8F362F
:1034E00001F148F48835A9F0F701868197812B9680
:1034F000E2E10C949E1B803749F08837A9F7D4FE8F
:1035000002C06894D2F820E130E00DC06894D4F88D
:10351000F6CF34FE03C0822F8660D82E20E132E041
:1035200002C028E030E0F801D7FE0FC06081718151
:10353000828193810C5F1F4FA5010E94241BC82E1E
:10354000CA183D2CE89437F867CF6081718190E00C
:1035500080E00E5F1F4FF0CF42FC02C0839478CF13
:103560008394839475CF842D867809F471CFF6CF38
:10357000B70180E290E00E94F41A83948214C0F3B1
:10358000512C73CF522C5818821408F46ECFF8CFF8
:10359000842D867809F47BCF8BE241FE80E247FCE4
:1035A0008DE2B70190E071CFB70180E390E00E9417
:1035B000F41A9A946CCF8FEF9FEF99CFFC0105908E
:1035C000615070400110D8F7809590958E0F9F1F25
:1035D0000895FC016150704001900110D8F780956A
:1035E00090958E0F9F1F08950F931F93CF93DF9396
:1035F000182F092FEB018B8181FD09C01FEF0FEF01
:10360000812F902FDF91CF911F910F91089582FF0D
:1036100014C02E813F818C819D81281739073CF48D
:10362000E881F981CF0101969983888310838E8187
:103630009F8101969F838E83E3CFE885F985812F53
:103640000995892BA1F3DACFFA01AA27283051F185
:10365000203181F1E8946F936E7F6E5F7F4F8F4FC3
:103660009F4FAF4FB1E03ED0B4E03CD0670F781F22
:10367000891F9A1FA11D680F791F8A1F911DA11D07
:103680006A0F711D811D911DA11D20D009F4689440
:103690003F912AE0269F11243019305D3193DEF6E8
:1036A000CF010895462F4770405D4193B3E00FD09E
:1036B000C9F7F6CF462F4F70405D4A3318F0495D89
:1036C00031FD4052419302D0A9F7EACFB4E0A6956C
:1036D0009795879577956795BA95C9F7009761058E
:1036E000710508959B01AC010A2E069457954795E4
:1036F00037952795BA95C9F7620F731F841F951FD9
:10370000A01D08952F923F924F925F926F927F92E9
:103710008F929F92AF92BF92CF92DF92EF92FF92E1
:103720000F931F93CF93DF93CDB7DEB7CA1BDB0B8D
:103730000FB6F894DEBF0FBECDBF09942A88398832
:1037400048885F846E847D848C849B84AA84B98439
:10375000C884DF80EE80FD800C811B81AA81B98145
:10376000CE0FD11D0FB6F894DEBF0FBECDBFED0159
:063770000895F894FFCF5C
:1037760001017017FA00A00F881301010000C603AB
:103786008000000306080AAE0AA20ACDCCCC3D0C86
:10379600006801910A850ACDCCCC3D0C0068017405
:1037A6000A680ACDCCCC3D0C006801570A4B0ACDFD
:1037B600CCCC3D0C0068013A0A310A9A99993D0928
:1037C600006801200AD8099A99193F48006801C77C
:1037D600098B090000003F3C0068017A0933099A09
:1037E60099193F4800680122091A09029A883D087A
:1037F60000680109090109029A883D08006801F07C
:1038060008A8089A99193F4800680197083708CD13
:10381600CC4C3F60006801260836070000803FF068
:1038260000D002250735060000803FF000D00224B4
:1038360006DC059A99193F48006801CB059B0500EF
:1038460000003F300068018A057A05A987083E1006
:10385600006801690545059A99193E2400D002348D
:1038660005A4049A99193F9000D00293044304E3F7
:10387600AA2A3F5000680132040204CDCCCC3E3067
:10388600006801F103A9039A99193F480068019855
:103896000350039A99193F480068013F03AF029A03
:1038A60099193F9000D0029E020E029A99193F90F4
:1038B60000D002FD01AD013BAAAA3E5000D0029CF9
:1038C600016C01CDCC4C3E3000D0025B011B01F8EF
:1038D60088883E4000D0020A01C2009A99193F48E2
:1038E600006801000000004906B305E005960611D0
:1038F60006EF05030600000000680BB305590758DC
:10390600070D0A00535750202535642020253564BD
:103916000046495820202535642052504D2020006D
:10392600504F5420202535642052504D2020002031
:1039360020202020202020202020202020202000A1
:103946002C0020417264752D5374696D204C4344DC
:04395600202000002D
:00000001FF
